:020000021000EC
:108000000040002091130200CD130200CF130200A4
:108010000000000000000000000000000000000060
:10802000000000000000000000000000D11302006A
:108030000000000000000000D3130200D51302006E
:10804000D7130200E1B201004D1A0200D71302005B
:10805000D71302000000000009140200D713020029
:10806000D7130200251C0200D5180200D713020006
:10807000D7130200D7130200D7130200D713020050
:10808000D7130200D7130200D7130200D713020040
:10809000D713020005110200750F0200D71302006A
:1080A000D7130200D71302000000000000000000F8
:1080B00000000000000000000000000000000000C0
:1080C00010B5064C2378002B07D1054B002B02D0AE
:1080D000044800E000BF0123237010BDB820002039
:1080E00000000000108C0200044B10B5002B03D0E0
:1080F0000349044800E000BF10BDC0460000000076
:10810000BC200020108C0200402292029A1A924653
:108110007047C046174B002B00D1134B9D46FFF70D
:10812000F3FF00218B460F461348144A121A0FF032
:1081300007FA0E4B002B00D098470D4B002B00D0B8
:1081400098470020002104000D000D48002802D0AF
:108150000C4800E000BF0BF093F8200029000EF05F
:10816000F1FF0BF077F8C0460000080000000000A7
:108170000000000000400020B0200020D82800208F
:1081800000000000000000000122044B84B01A70BF
:108190000022034B1A7004B07047C046012800202B
:1081A000FF27002010B50400034B036040300BF0A4
:1081B000BAFE200010BDC04604770200F0B585B0BD
:1081C0001F000AAB1B880600150002910393002FC5
:1081D0001BD028200FF060F96B4604001989039B1F
:1081E000AAB200933B000BF03CFE33682100300044
:1081F0005B689847002806D020000BF048FE20005E
:108200000FF046F9024805B0F0BD0248FBE7C04652
:1082100016FCFFFF17FCFFFFF0B595B00793784BF6
:10822000784C1B78049005910692002B00D1D8E081
:108230000123754E754908A8337001F013FC08A995
:108240000EA80BF049FF00220EA913000192009224
:108250006F4802F025FC0EA80BF031FFFA20C00099
:1082600001F0B0F825686B490EA801F0F7FA022278
:108270000EA928000DF046FD0EA80BF054FE25684F
:1082800065490EA80BF0A4FE02230EAA290009A836
:1082900005F00CFE0EA80BF046FE09A90CA80BF089
:1082A00097FE0CA90EA80BF002FC0CA80BF03BFEED
:1082B0005A4D280000F096FB6A4611AB00284ED0BC
:1082C00083CB83C228000E990F9A109B00F09AFB73
:1082D000534D0BA829000BF07BFE01220BA90CA823
:1082E00003F052FB0BA80BF01EFE0CA80DF0DFF8FC
:1082F000002853D027684B490BA801F0AFFA02229F
:108300000BA938000DF0FEFC0BA80BF00CFEFA20B8
:10831000400001F057F810220CA90AA80DF0A1F8AE
:108320000A9B276802229B5E002B21DD0AA90BA86D
:108330000BF04EFE0BA9022238000DF0E3FC0BA857
:108340000BF0F1FD10220CA90BA80DF08AF80BA977
:108350000AA80BF045FE0BA80BF0E5FDE0E783CB88
:1083600083C228000E990F9A109B00F013FBAFE711
:108370002D490BA801F072FA02220BA938000DF06A
:10838000C1FC0BA80BF0CFFD0CA803F069FBFA2091
:10839000400001F017F80AA80BF0C5FD2468234936
:1083A0000BA801F05BFA02220BA920000DF0AAFC39
:1083B0000BA80BF0B8FD1E4B29681868043103F0B8
:1083C000C9FF01221B4B0CA81A70002333700DF05B
:1083D00072F809A80BF0A7FD08A80BF070FE15B005
:1083E000F0BD246814490EA801F038FA02222000DA
:1083F0000EA90DF087FC0EA80BF095FDEFE7C04627
:10840000FE27002054240020FF270020C481020002
:10841000CC2100201C820200D42000200028002053
:10842000D820002022820200298202003482020029
:10843000202500200128002039820200F0B5E54DFA
:10844000A7B0280000F0ACFB1C200FF025F8DD21C0
:108450002023040089001A00695805F051FC1025FA
:10846000FA21DD4B01221C60DC4CDD4B8900200031
:108470000095FFF7A3FEFA210122DA4B89002000C4
:108480000095FFF79BFED84909A801F0EBFAD74900
:108490000AA801F0E7FAD6490BA801F0E3FAD5499A
:1084A0000CA801F0DFFAD4490DA801F0DBFAD3499A
:1084B0000EA801F0D7FAD2490FA801F0D3FA012390
:1084C000D04FD1483B7000F08DFAD04D041ED04EF5
:1084D0001ED00AA91EA80BF0FFFD002228001300E1
:1084E000019200921EA902F0DBFA1EA80BF0E7FD34
:1084F0003378002B3AD1C7480BF0D0FF002803D0C7
:10850000C54B1B78002B31D0642000F05BFFEFE7F8
:1085100009A91EA80BF0E0FD230022002800019409
:1085200000941EA902F0BCFA1EA80BF0C8FD337817
:10853000002B03D1642000F045FFF8E70CA91EA82A
:108540000BF0CAFD002228001300019200921EA920
:1085500002F0A6FA1EA80BF0B2FDB0480BF09EFF89
:10856000002803D1643000F02DFFF6E700240BA9AA
:108570001EA834703C700BF0AFFD230022001EA932
:1085800001940094280002F08BFA1EA80BF097FDCE
:10859000A34800F017FF28000CF07FFB013C9D4E24
:1085A00030000BF07BFF002800D00FE1964918A89F
:1085B00000F01EFA1C9DAC4200D1BCE0002D2ED074
:1085C000199B06932B0025001C00964B964A63438B
:1085D0009B18964A934200D9F6E095480CF021FF8B
:1085E000069E944B013EB600F3580138874D0FA903
:1085F000834205DC904B0EA9F358834200DB0BA9A4
:108600001EA80BF069FD00222800130001920092C1
:108610001EA902F045FA1EA80BF051FD8BE0874918
:1086200010A801F01BF90DA91EA80BF055FD774FFE
:108630002B002A001EA938000195009502F030FA9F
:108640001EA80BF03CFD0F200BF0F5F918A86E49A1
:1086500000F0CEF9199B7A481C9C06930CF0D9FDCA
:1086600000286CD077491EA801F0F8F81EA910A8C0
:108670000BF0B6FC1EA80BF056FC38000CF00DFBFE
:1086800002200BF0FEF90F200BF0D5F902200BF0C1
:10869000F8F96A491EA801F0E1F81EA910A80BF02C
:1086A000AEFC07001EA80BF03EFC002F3DD1604839
:1086B0000CF0B7FE109B421E043304931A9B6249D0
:1086C00007930393069B00940293189B1EA80193A3
:1086D0001B9B0AF049FE1EA911A801F0BFF85B4FD1
:1086E00016A839000BF074FC032216A914A803F095
:1086F0004BF916A80BF017FC14A80CF0D8FE0028B4
:1087000032D011A916A80BF063FC16A914A80CF01E
:10871000C6FE16A80BF007FC14A803F0A1F914A8D4
:108720000CF0C9FE11A80BF0FEFB10A80BF0FBFB30
:10873000002C00D049E7642000F044FE2FE73748C2
:108740000BF0ACFE002801D041498CE730000BF063
:10875000A5FE002801D03F4985E7642000F032FEE5
:10876000052C00D572E788E7390013A80BF030FC20
:10877000042213A916A803F007F913A80BF0D3FBE2
:10878000354912A801F06AF812A913A80BF020FCD1
:1087900013A916A80CF083FE13A80BF0C4FB11A9B3
:1087A00013A80BF015FC13A916A80CF078FE13A85B
:1087B0000BF0B9FB16A803F053F912A80BF0B3FBAA
:1087C00016A80CF078FEAAE72C00B4E7144800F0D5
:1087D000F9FD74E6DC20002054240020AC210020A8
:1087E0001982010089810100428202009C820200FC
:1087F000F88202003E8302008C830200D8830200CC
:1088000028840200FE27002000280020CC21002020
:10881000012800206C220020FF2700204422002095
:10882000B80B0000EFEEEEEE8888880810111111E9
:10883000BC2200203C7702000C77020082840200F8
:10884000942200208484020096840200D820002014
:108850008984020090840200B884020070B5114D32
:10886000280000F0E5F8104C1049220028000EF016
:1088700008FE0F480BF061F90E4D0F49280000F07B
:10888000EDFF0E4E2200310028000EF0FAFD0C4DD7
:108890000C49280000F0E2FF3100280022000EF011
:1088A000F0FD70BDDC20002000200020C988010000
:1088B00000280020D8200020D4840200273F020096
:1088C000D4200020DD840200CA23144A9B0010B586
:1088D000C2501C330400C0180BF025FBD0239B00B2
:1088E000E0180BF020FB20009130FF3001F0D4FBAA
:1088F00020006930FF3001F0CFFB2000F03001F0A4
:1089000043FF2000D03002F099FA2000643008F0D4
:108910009DFC201DFFF746FC200010BD207C0200BE
:1089200070B5FA240125A400184B5A6901325A6126
:108930003B2A04DD00225A611A6901321A611A6960
:108940003B2A04DD00221A61DA680132DA60DA6853
:10895000172A04DD0022DA601A6801321A605A68A8
:108960000B48511E890009581868884202DD0132FF
:108970001D605A605A680C2A04DD00225A609A6809
:1089800001329A60200000F01DFDCDE75824002040
:108990006C77020084B007B507930E4B06921A78E5
:1089A0000591002A12D101321A700B4B069A1960F8
:1089B0005A60079A09499A60089A0948DA60099A40
:1089C00001921A610A9A5A6100F032FC03B008BCA5
:1089D00004B018470228002058240020BD9401004C
:1089E00021890100014B18787047C04602280020F9
:1089F000020030B5024B32CB32C232CB32C230BD74
:108A000058240020094884B082B005938360069BF7
:108A10000391C360079B049201930361089B01606B
:108A20004260436102B004B07047C0465824002041
:108A30001423F0B5040093B00093192218210430D8
:108A400002F09EFC2200250026006432B43513217A
:108A500010001092B83608F005FC28000CF087FCD6
:108A600000221E2130000CF01DF92000D03002F051
:108A700005FA2200F03211920621464A119801F0BF
:108A8000ABFE20000027012369301A001121009756
:108A9000FF3001F00DFB20009130012302221A214A
:108AA0000097FF3001F004FB2000B9301A230121A8
:108AB0000222FF3002F0A0FA300001F0FFF8E422B9
:108AC0005200A050300001F04DFBE6235B00E05067
:108AD0000100E42220005200D130119BA2580095E1
:108AE000FF3001F093FD2000E13029001C22FF300F
:108AF00002F0E0FD192320000F93013B0E93013B90
:108B00000D93013B0C93013B0B93013B0A93013BFB
:108B10000993013B0893013B0793013B0693013BFB
:108B20000593013B0493013B0393013B0293013BFB
:108B30000193F930013B082200930721013BFF30EC
:108B40000CF0D1F8CA239B002900E01804F0DCFAED
:108B5000D3239B00E0181D2102F05EFBDD239B0068
:108B6000E7501098032127700EF0C0F9230022006F
:108B7000200009499C33A0321C6011605760074AED
:108B800002215A618030012208F0F0FC200013B06D
:108B9000F0BDC0469C770200533B02003D3B020003
:108BA0000278F0B50123170004008FB01F401A426D
:108BB00000D081E00300D0331800039300F0B2FA34
:108BC00000F0E0F928200EF067FC050010300BF0F3
:108BD00049FA6F4B18202B600EF05EFC06006D4BBF
:108BE0000822390004600C300C930D970EF0A8FC9D
:108BF0000CA90822301D0EF087FC674B2900736119
:108C000012230398AE60EF60AB802F626F6202F0B8
:108C1000A9F8002805D028000BF039F928000EF03B
:108C200037FC012327002278B437134323705B49B4
:108C300038000CF0A2FB00265949059038000CF0D2
:108C40009CFB35000690642000F0BCFB04962300DA
:108C50006933FF33180007930BF020FC00282DD157
:108C6000059B002B34D1069B002B31D1DD254D49CE
:108C70004D48AD0000F09EFC6359002B1CD100F064
:108C8000A1F801000BA800F0E9FD0CA80AF0D4FF40
:108C9000CA239B00E018069B0CAA0BA90093039B18
:108CA00004F08CFA0CA80BF03EF90BA80BF03BF982
:108CB000CC239B00E35863510FB0F0BD20009130EE
:108CC000FF300BF0EBFB0028CAD0049B182BC7DC4D
:108CD00020006530FF2329B232B2FF3000F056FE8B
:108CE000322000F06FFB049B01350133EDB2049399
:108CF000052D02D100250136F6B2049B192B0AD0AE
:108D0000059B002BA3D03800244902F067FC05988E
:108D10000EF0BEFB02E0059B002BF4D1069B002B5E
:108D200002D018000EF0B4FB1E491F4800F042FCB0
:108D3000CA239B00E3180893DD239B00E3580993A3
:108D4000002B1ED100F03EF801000BA800F086FDBC
:108D50000CA80AF071FF01230CAA0BA90898009334
:108D6000039B04F02BFA0CA80BF0DDF80BA80BF01A
:108D7000DAF8CC239B00E3580993DD23099A9B0082
:108D8000E2502100079A0898F03104F00FFC5EE7EA
:108D9000FD030000C53B0200853B0200DF840200AA
:108DA000EA84020000200020001F0020BFF34F8F44
:108DB000024B034ADA60BFF34F8FFEE700ED00E09D
:108DC0000400FA05F0B58BB003AF1922380015493D
:108DD0000EF09AFB0023144D05266B7180235B0572
:108DE0005B6E2C000093012301933100009809F081
:108DF000B3F80800019909F029F80522009B5643B1
:108E00001B1A0093019B534301932B1B5343FB18E5
:108E10001B5C013C6371054B9C42E6D102480BB0E0
:108E2000F0BDC0463085020003280020FE27002048
:108E3000F0B595B01822002104000EA80EF080FBBA
:108E400013210EA80EF05CF903210EA80EF003FA10
:108E5000464B1B68002B00D10133DBB2009300218D
:108E60000123434A09A808F0F1FCFA239B009C4225
:108E70009B411C4072B63F4B64211E683E4B200054
:108E80000593052509F06CF86843503030180A2125
:108E90000690200009F064F80A2109F047F96943B7
:108EA00050317118200007910A2109F03FF94D4314
:108EB00050357619089680260024B601009B002BB9
:108EC00052D004AD0027032C02D180260024B60125
:108ED0006B682A4A02936300D318002201925878E3
:108EE0000299095C039119788C4610216046014172
:108EF0000398014204D0012090400199014301915F
:108F000001320633092AEAD1019B2A68D9431C4B56
:108F100009011940029B934224D1312F22DC002108
:108F200009A80EF051FAFA23139A0F99DB00106882
:108F3000014219D0013B002BF9D1FA23013401374A
:108F40007600E4B25B009F42BDD1043508ABAB4272
:108F5000B8D1064B1B68002BB0D0009B013BDBB2A5
:108F60000093ABE73143DBE7FFF720FF74240020D9
:108F7000F0FF0000042000207F85020049850200E8
:108F8000F01F0000F8B50023124C23600AF075FEB4
:108F9000002808D0042120000AF06BFE002801D030
:108FA0000D4B2360F8BD0122A12704250B4B0C4972
:108FB0001A602268FF0048604E68002EFCD0DE591F
:108FC0001202013D3243002DF5D1226001225A6088
:108FD000E8E7C04670240020ED5EBC0B00D00040E6
:108FE000FCD000400B4B70B51C68002C10D0656D98
:108FF00000F0F0FBA36C002901D1834206D82000C9
:109000000AF06EFE200004490AF058FE2C00ECE73E
:1090100070BDC0467C2400209C240020F0B593B095
:1090200007932A4B04AC1E68049005910692002E0B
:1090300049D0274B258867881C6800230293002CA1
:109040002DD0636D23480393A36C190C9AB20B00C7
:10905000854214D12048824211D1002901D0B94261
:109060000BD1029B002B08D120000AF039FE200012
:109070001A490AF023FE01230293039CDFE7002A2A
:1090800001D09542F9D1002901D0BB42F5D1200091
:109090000AF026FE200011490AF010FEEDE7104B01
:1090A000EB18012B0FD910233A002900009308A8D0
:1090B0000C4B0AF0D6FE336830009B6808A998472D
:1090C00008A80AF0E4FE13B0F0BDC04678240020E2
:1090D000A8240020FE030000FF0300009C240020C1
:1090E00002FCFFFF1D90010010B572B60B4B1C680F
:1090F000002C08D020000AF0F3FD0023E364084BA5
:109100002000E36310BD62B65C200EF0C5F95C225E
:10911000002104000EF014FAEFE7C046A02400205E
:1091200000400020F7B51E4C0123227816001E4097
:109130001A4233D11B4D2860FFF7D6FF1A4B1B494B
:1091400018600AF0BBFDFFF7CFFF194B1860194BF1
:109150004363194B8363286800280FD0C023174F3F
:109160003200174900933B00FFF728F8C023009313
:1091700032003B0013492868FFF720F80C200EF05E
:109180008BF90023838083710F4B03600F4B836047
:1091900000F038FB0123227813432370F7BDC0464B
:1091A0000928002078240020AC2400209C240020E2
:1091B000A4240020FC3F0020793D02001D90010006
:1091C000FF030000FE030000BC770200E58F0100F2
:1091D000024B1878012318407047C0460928002028
:1091E000F7B506000D0017000193002802D10024F6
:1091F0002000FEBD0029FAD0FFF776FF041EF6D04E
:10920000074B019A43630660064B45608760002A5E
:1092100000D0054B20000549A3630AF04FFDE7E7A6
:10922000FC3F0020533D0200613D02009C240020D1
:1092300070B5074B04001D7801222800104015422C
:1092400004D0002320001A00FFF7CAFF70BDC046FB
:109250000928002070B5074B0E0011001A78050090
:109260000123100018401A4203D032002800FFF7F3
:10927000B7FF70BD09280020024B186843425841CF
:109280007047C0469C2400200300002210B504490A
:1092900094006058002801D00132F9E7635010BDF6
:1092A00084240020002310B5044A99008C5884427D
:1092B00001D00133F9E70020885010BD842400203C
:1092C00010B50024084BA200D058002802D0036833
:1092D0005B6898470134062CF4D1044B1B68002BC3
:1092E00000D120BF10BDC046842400209C24002053
:1092F0000122F8B52C4B1B7813421CD02B4D2C6847
:10930000E36C134218D002273B43E364284B1E68EA
:109310000423F26C30001343F364636BF3630AF0CD
:10932000F6FC3000716C04F062FF2868C36C3B42AD
:1093300001D004F096FFF8BD1E4F1F4E3A6830680A
:10934000002A0AD128601B0712D52C60FFF7B8FF4E
:109350003B68002BFAD02B600AE0216DB94219D18D
:10936000616D002900D1110029602A688242EAD08B
:1093700029688C42DFD0336899420DD10F4B4B6383
:109380000F4B8B6320000AF0C2FC296820004B6C55
:10939000626C06E02A60E8E79C42F3D100221000EC
:1093A0004B6C04F0E3FEC6E709280020AC24002043
:1093B000802400209C240020A4240020FC3F0020C6
:1093C000793D020070B5114B04001A7801231A424E
:1093D00002D10DF039FF70BD0D4A1568EA6C1A42D2
:1093E00006D0FFF781FE0B4B1860002800D0050067
:1093F00000F0F0F92418AC6428000AF071FC280091
:1094000005490AF05BFCFFF773FFE4E70928002039
:10941000AC240020802400207C240020F0B51E4BCA
:109420001E4F1E683B6885B005000391002B31D0AC
:109430001B4B1A7801231A422CD0F26C1A420ED020
:10944000FFF752FE174B041E186008D00AF048FCC4
:10945000200015490AF032FC2600FFF749FF039B64
:1094600030001B042B43B3640AF03AFC30000F4970
:109470000AF024FC0E4B0024EB18012B07D9C02363
:10948000009329000B4B039A3868FEF797FE2000E3
:1094900005B0F0BD084CFAE7AC2400207824002089
:1094A00009280020802400209C240020A8240020DB
:1094B00002FCFFFF1D90010016FCFFFF10B5074BDB
:1094C0001B78DB0709D5064C20680AF009FC054922
:1094D00020680AF0F3FBFFF70BFF10BD09280020FE
:1094E000AC240020A024002010B5034B1B78DB0720
:1094F00001D5FFF7E3FF10BD09280020F7B50500EF
:109500000C00002833D001261B4B1B78334230D08F
:109510001A4F07233868C26C1100194000911A4293
:1095200007D021002800164AFFF794FE00252800E6
:10953000FEBD04F07EFE3A680221D36C180008409C
:1095400001900B4203D001318B43D364EEE73343E8
:10955000D3642000A8473A68019DD36C1900B14339
:10956000D1645B07E3D52000FFF7BEFFDFE7054DC1
:10957000DDE7054DDBE7C04609280020AC240020CC
:10958000E994010017FCFFFF16FCFFFF020010B575
:10959000014B12CB12C210BDB0240020034B1A683D
:1095A000034B1A607E225A607047C0460420002098
:1095B000B0240020F0B5124E03003278022A1BD0EE
:1095C00081421BD90C1A072C18D90D00054303271B
:1095D000280038403D4211D172B6BA40094DA40866
:1095E0005351AA1851608022120614431C6033782C
:1095F0000133337062B6F0BD0348FCE70348FAE775
:109600000B280020B824002013FCFFFF17FCFFFFED
:1096100070B5134C05002378124E002B0CD1124963
:1096200012483370FFF7C6FF114B984202D11E203B
:10963000FFF7FEFB0123237000243378A34209DDEA
:109640000C49E3002800C9180AF09CFB002805D14A
:109650000134F2E71420FFF7EBFB002070BDC04699
:109660000A2800200B28002000380020D8280020DD
:1096700017FCFFFFB824002010B5002817D00022E7
:109680000F4B19780F4B914215DD1C6884420FD2A5
:109690005C6884420CD9041F2368002B02DC1E2066
:1096A000FFF7C6FB802322681B061343236010BD0F
:1096B00001320833E7E71E20FFF7BAFBF7E7C046A1
:1096C0000B280020B824002070B5051E14DD0B4EB9
:1096D0000B4C3368002B02D020680DF06AFCFA2195
:1096E00020680024074B89008361C46269433560A8
:1096F0000DF070FC200070BD0348FCE7C82400207A
:10970000F8240020B197010017FCFFFFF8B5114FB6
:1097100005003E68002E0AD130200DF0BDFE040089
:1097200007F008FE0C4BA6612360E6623C600B4E1E
:109730003368002B09D110200DF0AEFE04000DF0AF
:1097400095FC200034600DF06BFC2800FFF7BCFF97
:10975000F8BDC046F8240020C87F0200F424002091
:10976000014B18687047C046C824002070B50D4CE6
:109770002368002B03D00C4B1B68002B02D1062062
:10978000FFF7C4FF20680DF062FC02000749C31711
:109790000D684E685219734120680A604B600DF0E5
:1097A0005CFC70BDF4240020F8240020B0200020D0
:1097B00010B5FFF7DBFF0024054BA200D0580028AE
:1097C00002D003681B68984701340A2CF4D110BDFD
:1097D000CC24002010B5FFF7C9FFFA22034B9200FA
:1097E00018685968002308F0E1FC10BDB020002083
:1097F00010B5FFF7BBFF024B1868596810BDC04693
:10980000B02000200B4B10B51B680400002B03D0C8
:10981000094B1B68002B02D10620FFF777FF0023BE
:10982000064A99008858002801D00133F9E78C5086
:1098300010BDC046F4240020F8240020CC240020D1
:10984000002310B5044A99008C58844201D001339A
:10985000F9E70020885010BDCC24002010B504008A
:10986000002902D00B78002B03D1034B236020008A
:1098700010BD0AF05FFBFAE7CC770200F8B50400F0
:109880000E00150000290AD00B78002B07D0002A03
:1098900005D0080097B20DF09BFE874203D90B4B11
:1098A00023602000F8BD681DFFF7B2FE20600AF0BB
:1098B000F4FC20682A004780310004300DF024FEBB
:1098C00023685D1900232B71EBE7C046CC770200BB
:1098D000014B03607047C046CC77020070B5096841
:1098E000160002228C5E0500A64206DB084B1868B3
:1098F00028600AF0D5FC280070BDA41B9C4200DD46
:109900001C000431280022B28919FFF7B7FFF2E7E3
:10991000FC24002010B50548054C20600AF0C0FC6E
:109920002000044A04490DF0ACFD10BDCC770200C4
:10993000FC24002000200020273F0200084B73B5C4
:109940001D680400002D0AD001002E68082208318D
:1099500068460DF0D9FD0CCC28003168884773BDEE
:1099600000250020014B03607047C046D4770200F9
:1099700010B50400081E03D1034B2360200010BD66
:1099800021600AF08DFCF9E7D477020030B5006859
:109990004488A1420CDA8588AA4209DA002907DB4B
:1099A000002A05DB6243401880188371002030BD17
:1099B0000048FCE717FCFFFFF0B507000E001D0094
:1099C00085B0002921DD002A1FDD002B1DD0046891
:1099D000638803938B4200DD0391A3880293934233
:1099E00000DD0292002306340193019B029A934208
:1099F0000ED029002000039A0DF086FD3B68AD19BA
:109A00005B88E418019B0133EEE7024805B0F0BD26
:109A10000020FBE717FCFFFFF8B504000D0016005F
:109A20001F00002901DB002A02DA0D4B2360F8BD7C
:109A3000100048430630FFF7EBFD20600AF02DFCD4
:109A400023685D809E80002F06D03B0032002900F5
:109A50002000FFF7B1FFEAE720000AF054FBE6E739
:109A6000D4770200F7B507000D1E03D1244B036025
:109A70003800FEBD00240800260021000194037870
:109A8000002B1AD03022524294469C446246092A46
:109A900011D90A2B0AD1019B361901330193B14226
:109AA00000DA3100002426000130E8E7002CFBD06A
:109AB00000240136F8E70124F6E70126019A380070
:109AC00012B209B27642FFF7A7FF31000A203B68C5
:109AD0009A1D2C78002CCBD02300303B092B08D8C2
:109AE000F343DB17334043431B19303B1E00013562
:109AF000EFE7002EFBDB16700E000132F7E7C046E1
:109B0000D4770200F0B5050087B004A816001C0049
:109B10000F00FFF73BFD2B685A88964235DA9B8889
:109B20009C4232DA1F2F30D9059B01939F422CDCD7
:109B300005217943049BA0395B1801932300621D22
:109B40000392019A1278029200222C68B71860885A
:109B5000B8420DDDA1888B420ADAE41910271741BB
:109B60005843029924180F40781E87417F42A771FD
:109B70000132052AE9D1019A013301320192039A97
:109B80009342DED1002007B0F0BD0148FBE7C0469C
:109B900017FCFFFFF7B5036806009F1D5B880D00EB
:109BA0005A1A0192002919DD0024994203DB0AF0B8
:109BB000AAFA002013E033689B889C42F9DA7919ED
:109BC0003800019A0DF0A0FC019B2900F8180AF05A
:109BD0007DFA336801345B88FF18ECE70048FEBD6E
:109BE00017FCFFFF10B50548054C20600AF058FB34
:109BF0002000044A04490DF044FC10BDD477020053
:109C00000425002000200020BF40020010B5054CB4
:109C1000012120000AF038FB2000034A03490DF01F
:109C200030FC10BD08250020002000204742020023
:109C3000074A030010B50120934208D0834202D0A6
:109C40000020DB0703D41E20FFF7F2F8002010BD30
:109C5000FFFF00000048704716FCFFFF10B53220E0
:109C6000FFF7E6F8004810BD16FCFFFF82801422C3
:109C7000002310B541620F4C0100083404600E242B
:109C80000281123A837182720363838636310A78C5
:109C9000C360A243036143618361C36103620A70CD
:109CA000021DD38701224287034AC2630200403269
:109CB000137010BDF477020001000100F0B5564E9C
:109CC0000500376897B0002F00D090E006AC0B235A
:109CD0001C222121200001F0C7F90B231D22222183
:109CE0000AA801F0C1F90B231B2223210EA801F0C1
:109CF000BBF908200DF0D0FB01223B0011000490BD
:109D00000CF039F83A2128000BF0C9FC00281CD0CF
:109D1000A38812AFBB80A379A268BB713F4B5C20C4
:109D200012930E23E3561492A289BB73BA810DF0ED
:109D3000B3FB04230193363300933A002900049BBC
:109D4000040002F031FD346051E0322128000BF0B4
:109D5000D4FC00281BD0A38812AFBB80A379A268D3
:109D6000BB712E4B5C2012930E23E3561492A289F2
:109D7000BB73BA810DF090FB042301932E33009343
:109D80003A002900049B040002F0A6FEDBE73C2118
:109D900028000BF06DFC002834D0362202AB9B8EDD
:109DA00012AFBB8002AB9B181B780832BB711B4BF8
:109DB000A420129302AB9B18109A1B781492059260
:109DC00002AA928F5BB2BA81BB730DF065FB0523CB
:109DD00004000293013B0193383300933A00049B43
:109DE000290002F001FC0E4B346044341C600C4B23
:109DF000094C1868002802D021680AF0BDFB2068D1
:109E000017B0F0BD44200DF047FB04220499040074
:109E1000FFF72CFF97E7C0460C250020E4770200EF
:109E200010250020F0B56349C56885B08D4258DA29
:109E3000030036331C7802222300134014425BD106
:109E4000026901928A4265DA0200363212785207BC
:109E50006AD4426902920200029C40328C4270DA5B
:109E6000010036310978090775D4002B7ED11378AB
:109E70009C46002B16D00100061DF38F36310133AE
:109E80009BB2F3870391097801270C003C403942CB
:109E900000D188E01D2B05D9039BB943197000231D
:109EA000F38713700AF048FA434A0723904277D9A0
:109EB0004249043B8D4273DBC82201339200954234
:109EC0006EDC0198023B88426ADB013B904267DC12
:109ED00002980433884263DB0023904260DD06333E
:109EE0005EE0C822002352009542A9DD030036330C
:109EF0001A7800239207A3D4012306001F003636E8
:109F000032785408A7433C0002279C40BA432243BE
:109F1000327095E7C822019C5200944299DD0200FC
:109F200036321278520794D4012306001C003636CC
:109F300032789708BC43A7000424A2433A43327006
:109F400087E7C821029C49008C428EDD0100363132
:109F50000978090789D40100012636310B78DF081A
:109F6000BE430827F600BB4333430B701378032B23
:109F700000D97CE70133DBB21370012B03D1002140
:109F8000031DD98773E7042B00D070E70200363237
:109F90001178033B0B43137000230430C3870B334A
:109FA000180005B0F0BD092B00D87BE76346F487A5
:109FB000013B76E770FEFFFFFF700200E0FCFFFF51
:109FC000F0B5C369C1681A68451D0400EB7F89B00C
:109FD000114225D0002B57D10123A2791A4237D044
:109FE000002602226846A188A6710AF045F8A31D42
:109FF000DD7F012D2CD1FFF7EDFB3300226A801AA3
:10A0000099410F000600A1889F4203D1FA239B00CB
:10A010009E423BD30123042204A80AF02DF817E046
:10A020000B2B01D80133EB77EB7F082B0DD90122E5
:10A03000A37913420CD11343A188A37104A8130080
:10A040000AF01AF8FFF7C6FB2062EB7F012BC3D999
:10A050000322A3791340012B14D1FFF7BBFB00238C
:10A06000226A801A9941994202D10A4B984209D931
:10A070000223A279A1881343A3710522012304A816
:10A0800009F0FAFF09B0F0BD013BCCE72B00032239
:10A09000C2E7C046DB05000010B50400034B0833DF
:10A0A0000360FFF7CDFB200010BDC04628780200FA
:10A0B000F0B5060000250F00040085B002930AAB3E
:10A0C0001B78083603930F4B290008330360019275
:10A0D00085808571182230000DF032FA3900300089
:10A0E000039A0DF012F8019B029AA380A31DE77159
:10A0F000DA77631D25622000DD77FFF783FB200000
:10A1000005B0F0BD287802000048704716FCFFFF3C
:10A1100010B53320FEF78CFE004810BD16FCFFFF83
:10A12000002310B50400838083710D48216408303A
:10A1300020608020C000A061E0612062110020004A
:10A14000E360236163616362A362E3622363636329
:10A15000A363E36363640AF0E7F9200010BDC0461F
:10A1600040780200F0B5544E0500376897B0002FD4
:10A170003DD10B231C22212106A80AAC00F074FF5C
:10A180000B231D222221200000F06EFF0B231B2237
:10A1900023210EA800F068FF08200DF07DF90122B0
:10A1A0003B00110004900BF0E6FD1D2128000BF090
:10A1B0008DFA002824D0A38812AFBB80A379A268AF
:10A1C000BB713E4B602012930E23E3561492A2897A
:10A1D000BB73BA810DF060F9052301931833009326
:10A1E0003A002900049B040002F0A6FB3460344BC3
:10A1F000314A1B681068002B00D0436417B0F0BDD3
:10A200003C2128000BF090FA00281BD0A38812AF45
:10A21000BB80A379A268BB71284B602012930E23E8
:10A22000E3561492A289BB73BA810DF035F9052368
:10A230000193373300933A002900049B040002F095
:10A24000EDFCD3E73C2128000BF012FA002829D0BE
:10A25000362202AB9B8E12AFBB8002AB9B181B78E1
:10A260000832BB71154BA420129302AB9B18109AB5
:10A270001B781492059202AA928F5BB2BA81BB73CB
:10A280000DF00AF9052304000293013B01933833D2
:10A2900000933A00049B290002F0A6F9084B1C60C9
:10A2A0004434A3E748200DF0F7F805220499040090
:10A2B000FFF736FF9AE7C04610250020E47702003A
:10A2C0000C25002082B0F0B50400EDB0642073933B
:10A2D00072920CF0B9FF052210A8110009F01CFFC2
:10A2E000984911A8FFF7BEFB1925002221AB013DBB
:10A2F0001A605A609A600C33002DF8D1152229009B
:10A3000014A813950DF01CF9A0680AF0C4FCFF21F5
:10A310000A90A06800F08CFC8B4FA06800F054FB02
:10A32000049507950995884B9F4203D0874B9F4220
:10A3300000DBFDE0A0680AF0B0FCA56884491AA81B
:10A34000FFF78CFA78221AA9280000F0DDFB1AA882
:10A3500009F0E9FD00237C4F04930326099B606804
:10A360000133334009930AF07FF8050060680AF072
:10A3700082F80022774B05929D420FDB0132059255
:10A380002A00C8320ADBAA220421920005919542D4
:10A3900004DC0596C82D01DC0222059200220692FB
:10A3A000984210DB012306930300C8330BDBAA237A
:10A3B00004329B000692984205DC03230693C828CA
:10A3C00001DC013B069310A809F09DFE624B0025BD
:10A3D0001E00089313ABEB5C012B05D1727831782A
:10A3E000FE3310A8FFF7D2FA01350236192DF1D14C
:10A3F0006B4618229A5E6B4610A81421595E099B81
:10A40000FFF7C4FA002F02DB049B0F2B07D90023B0
:10A41000A0681A007430009310A909F08AFE002683
:10A42000089B059A1B78934228D1089B069A5B7873
:10A43000934223D12C2308AAD218935D012B1DD05F
:10A440000C2207990CAD4A43280021680B92002288
:10A450000AF094F821A98C460B9A6244130007CDA8
:10A4600007C32C2308AAD31801229A55079B9B18CF
:10A47000DBB20793049B9B18DBB20493089B013665
:10A4800002330893192ECBD164200CF0DDFE079B1C
:10A49000643F3FB2182B00D845E71A0021A91AA83B
:10A4A0000AF07BFA6A461DAB23CB23C21B681360FC
:10A4B0001A991B9A1C9B20680AF048F8E568002D41
:10A4C0000CD0264912A8FFF7C9F91C2328001AAAA4
:10A4D00012A90AF087FF12A809F025FDA0680AF06A
:10A4E000DCFB11A912A8A56809F0F6FD00221C4B9F
:10A4F000009212A901932800130000F0A7FA12A8F5
:10A5000009F0DDFDFA2080000CF09EFEA0680AF044
:10A51000C4FB0A99A06800F08BFB11A809F0CFFDDD
:10A5200010A809F0CCFD6DB0F0BC08BC02B0184713
:10A53000002F03D0049B0F2B00D00EE7A06800F083
:10A5400043FA0AE75F8702008C3C0000D18AFFFFD4
:10A55000A487020058FDFFFFC4870200B9870200EC
:10A56000DC050000F0B587B001930EAB1B88060038
:10A5700003930D9B0D000093019B0C9F0292002BF7
:10A580003CD0002F02D1009BDB0737D528200CF0F0
:10A5900083FF0400103009F065FD029B1820258020
:10A5A00063800CF079FF0500009B08220593019B56
:10A5B000002103600C3004970CF0C2FF082204A9AC
:10A5C000281D0CF0A1FF0E4B02226B6100230399A2
:10A5D000E3602362636233680A43300021005B68F2
:10A5E000A560A2809847002806D0200009F04FFC03
:10A5F00020000CF04DFF034807B0F0BD0248FBE718
:10A60000BD45020016FCFFFF17FCFFFF70B58CB0C4
:10A610008360109B01604260C36004001849180009
:10A620000AF0ABFE051E14D001001C22103105A853
:10A630000CF06AFF6A4608AB43CB43C21B68136049
:10A6400020680599069A079B09F080FF28000CF006
:10A650001FFF0C4B186800280ED00B4A05AB059263
:10A6600000220692C03202926A4622CB22C2230006
:10A6700003220521FFF776FF20000CB070BDC04615
:10A68000B987020000250020C5A20100F0B5040032
:10A6900085B0637A9C46002B04D120000AF09BF918
:10A6A00005B0F0BDA37A266F01931023019AF356EB
:10A6B00000259B1801229A402900F3680392029317
:10A6C000029BAB4231DDB068019B6843C0187369DF
:10A6D0004000E77A1A181B5C5078E279012F14D1F8
:10A6E000571E3F1A18003B004243606F5200821809
:10A6F000D2189379634500DD6346627B1A4202D02B
:10A700000123AB4019430135DAE7022F07D0032FAD
:10A71000EAD1277A013FFF1A03003800E4E7571E09
:10A72000FB1A277A013F381ADEE71123C943F35693
:10A73000606C994023691940039B19430CF044FE57
:10A74000A27B072AACD8637B0C495B006373531C64
:10A75000DBB290004158A373022A03D808000CF022
:10A7600068FD96E7064B2000236300236363054BD7
:10A77000E462236414300CF02DFC91E76C78020045
:10A780008DA60100C149020070B50400104B2500E0
:10A7900008330360FFF754F82000743009F08FFC91
:10A7A0002000603009F08BFC2000583009F0BBFB22
:10A7B0002000503009F0B7FB064B143528006361C8
:10A7C0000CF0F7FB280006F0CBFD200070BDC04662
:10A7D0008C780200C87F0200F8B500250400324BD7
:10A7E0008580083303608571143016000F0006F071
:10A7F000A1FD20002D4BE562636125645030FFF719
:10A8000067F820005830FFF763F820006030FFF74A
:10A81000A9F820000423F25E33682667590009B2C4
:10A82000743009F079FC3368226FE3717368012694
:10A83000237210236581A7802561D356916859182A
:10A84000994204DD3000984001330543F8E71123B5
:10A850000120D356D1685918994206DD02009A406A
:10A860002669013332432261F6E714200CF014FE0E
:10A87000226900212A430123060006F0E7FFFF2397
:10A88000220063720133A381002348326664A373FC
:10A8900020001370A366FEF7B5FF0123A279200004
:10A8A0001343A371F8BDC0468C780200DC7F020020
:10A8B000F0B5437A040085B0002B04D120000AF0E3
:10A8C0008AF805B0F0BD0122837A11009C4610235E
:10A8D000066F0025F35603926344994002912900C4
:10A8E000F3680193019BAB422CDDB0687369684348
:10A8F00060444000E77A1A181B5C5078E279012F17
:10A9000010D1571E3F1A18003B004243606F52009F
:10A910008218D2189379002B02D0039BAB401943C5
:10A920000135DFE7022F07D0032FEED1277A013F51
:10A93000FF1A03003800E8E7571EFB1A277A013F89
:10A94000381AE2E71123C943F356606C9940236932
:10A950001940029B19430CF037FD667AB31EDBB237
:10A96000FC2B14D8FEF7FCFE0B4B050023630023E1
:10A970000A4863630A4BFF217043E462236407F0D3
:10A98000EFFA29004143200014300CF023FB637AD6
:10A99000012B00D995E791E7D7490200B6030000E3
:10A9A000C14902001FB5012381881A00684609F0D9
:10A9B00063FB012368461A00024909F05DFB05B0FC
:10A9C00000BDC046FE0300001FB5030048331A78DF
:10A9D0000400002A0DD000221A70012381881A0079
:10A9E000684609F049FB012368461A00034909F04B
:10A9F00043FB2000743009F086FB1FBDFF030000FD
:10AA000010B548300378002B06D00378012B03D013
:10AA10000121024809F094F910BDC046FF0300006F
:10AA200010B501210400062009F08AF9064B98426E
:10AA300008D148342378002B04D02378012B01D08F
:10AA400020BFF7E710BDC04616FCFFFF73B5079C9B
:10AA50000500002C1CDB060048363078002802D0A8
:10AA60003078012816D106981BB2C0B20090280099
:10AA700012B2743009F05DFB002C07D02B004A3372
:10AA80001C80002407234C352C803370200076BDB9
:10AA9000014CFBE7014CF9E717FCFFFF12FCFFFF3D
:10AAA000F0B587B00D9C05000E0017000393002C35
:10AAB00021DBFFF7A5FF2B0048331B78DAB20292A7
:10AAC000002B1AD1310005A809F006FB0C9B3A00B7
:10AAD00000932800039B019405A9FFF7B7FF05A881
:10AAE00009F0EDFA002C03D02800FFF799FF029C33
:10AAF000200007B0F0BD024CFAE7024CF8E7C04670
:10AB000017FCFFFF11FCFFFFF8B50400171E1DDD49
:10AB1000060048363378002B02D03378012B17D14A
:10AB20002200E3795632013B1370230000252000F8
:10AB300054331D80503009F053FA23004A331F80EC
:10AB4000022328004C3425803370F8BD0148FCE70F
:10AB50000148FAE717FCFFFF12FCFFFFF8B50400FD
:10AB6000171E2DDD060048363278002A02D03278D2
:10AB7000012A27D15D42069BFF331FD16B1D2200A6
:10AB80001BB2643213802300200066331D706030D6
:10AB900009F0AAFA230000226C331A70954200D003
:10ABA0003D0023004A331D80079B00205A1E93411D
:10ABB000013F4C34053327803370F8BD069BDEE738
:10ABC0000148FAE70148F8E717FCFFFF12FCFFFF16
:10ABD000F0B504000F0016001D0087B0002A1FDD2D
:10ABE000FFF70EFF230048331B78DAB20392002BE5
:10ABF00018D1390005A809F06FFA0D9B32000193B6
:10AC00000C9B05A9009320002B00FFF7A7FF05A8C8
:10AC100009F055FA2000FFF703FF039807B0F0BDD5
:10AC20000148FBE70148F9E717FCFFFF11FCFFFFB4
:10AC3000FF2902D84172002070470148FCE7C04656
:10AC400017FCFFFF13B5040004A800780090200053
:10AC50000CF024F9002801D1207516BD0048FCE74E
:10AC60000EFCFFFF13B5040004A80078009020003C
:10AC70000CF0FCF8002801D1207516BD0048FCE757
:10AC80000EFCFFFF7FB50D0011000F226A44040087
:10AC90001E1E117015D0089B002B12DD0123290008
:10ACA0000093FFF7DFFF002808D100903200290051
:10ACB0002000089BFFF7C6FF002800D0024804B020
:10ACC00070BD0248FBE7C0460EFCFFFF17FCFFFF0C
:10ACD000F7B506000D1E3ED000230227046901933C
:10ACE000002C34D0AA88A38853403B422DD13A424D
:10ACF00022D1A368AA68934227D12B88002B02D0C7
:10AD000022889A4221D16B88002B02D062889A4215
:10AD10001BD1EB68E268934201D0002B15D1736818
:10AD2000002B01D020009847A2880C4B1343A3802E
:10AD3000019B0133019308E0A968A0680BF000F8BB
:10AD40000028DAD1AB883B42D3D0646AC8E7019BC4
:10AD50002000002B00DC0248FEBDC0460080FFFF43
:10AD600017FCFFFFF0B506000D0085B000295DD08F
:10AD700001270469002C27D00221AA8800230A4257
:10AD800002D0A3885B083B40226829688A4215D11B
:10AD9000A068A968002B0FD00AF0D2FF00280DD0C0
:10ADA000EB68E268934209D10421625EA388002A1D
:10ADB00006DB1F4805B0F0BD8842F1D0646AD9E7D0
:10ADC0005B045B0CA380F4E730692A880100031E52
:10ADD00007D1356101236846164909F04DF9002075
:10ADE000E8E71C88944206D25C6A1900002C0DD05A
:10ADF0002300F6E723001C88944207D15F886C8803
:10AE0000A74203D85C6A1900002CF3D1884209D10B
:10AE10000B889A4204D305D148886B88984201D99F
:10AE20006962D6E74B6A6B624D62D3E70248C1E7BD
:10AE300016FCFFFFFD03000017FCFFFF064B10B5DB
:10AE40001A00040008322C33026083600830FEF7D9
:10AE500029FA200010BDC046A478020008B4024BB5
:10AE60009C46083808BC60473DAE010008B4024B60
:10AE70009C46083808BC60470D4E02000C4A00236F
:10AE800011002C32083110B54360838183738260D6
:10AE9000036143618361C383016004000830FEF7EE
:10AEA000F3F9044B1A68002A00D11C60200010BD81
:10AEB000A478020000250020F7B50D0001260469E2
:10AEC0000192002C37D023882A889A4201D0002B87
:10AED00024D163886A889A4201D0002B1ED1FEF7E4
:10AEE00077F90123002806D0C022A3881340C03B75
:10AEF0005A425341DBB2019A93421AD10422A35E13
:10AF0000A788002B15DB10222900A0180CF0FCFAF2
:10AF100040231F4204D0200009F081FF646AD0E77B
:10AF2000FEF756F90028F6D021000448FEF7E6FAAD
:10AF3000F4E70026F2E73000FEBDC0461F4E0200D7
:10AF400008B4024B9C46083808BC6047A94F020071
:10AF5000F0B587B001930EAB1B88060003930D9BE1
:10AF60000D000093019B0C9F0292002B3CD0002F00
:10AF700002D1009BDB0737D528200CF08DFA0400A6
:10AF8000103009F06FF8029B1820258063800CF0C8
:10AF900083FA0500009B08220593019B00210360B2
:10AFA0000C3004970CF0CCFA082204A9281D0CF0F0
:10AFB000ABFA0E4B02226B6100230399E36023621C
:10AFC000636233680A43300021005B68A560A28099
:10AFD0009847002806D0200008F059FF20000CF008
:10AFE00057FA034807B0F0BD0248FBE7E34F020001
:10AFF00016FCFFFF17FCFFFFF0B51600002583804D
:10B00000164A174B04008571026001814681057361
:10B0100018688C4689B0A8421DD0124A0595049242
:10B02000C02202926A4604AB82CB82C223002A006D
:10B030006146FFF78DFFC022094B0A49186802924A
:10B040006A46069106AB079582CB82C223002A008E
:10B050003100FFF77DFF200009B0F0BDE878020065
:10B06000002500200D51020030B500240373012398
:10B07000034D05608471818082734373846030BDA9
:10B08000E477020070B583790400DB0704D580689B
:10B09000002801D00CF0FCF9A3799B0704D5A06827
:10B0A000002801D00CF0F4F9A3795B0709D5A0239F
:10B0B0000021154AA068DB00D150884201D00CF075
:10B0C000E7F9A3791B0708D5A568002D05D028004E
:10B0D0000AF0A7FE28000CF0DBF9A379DB0605D502
:10B0E000A068002802D00368DB6898476023A27933
:10B0F0001A4205D0A068002802D003685B68984710
:10B100000023A360A37170BD00700040F7B5022753
:10B11000037B04000D003B4228D0012928D8837905
:10B120001A003A4001923B4214D1FFF7ABFF1820BE
:10B130000CF0B2F90E230600E35618220199009391
:10B140000CF0FEF9300000990BF0F1FFA379A66036
:10B150003B43A371A3685A68002D04D00025DB6827
:10B160001A602800FEBD1B691A60FAE7014DF8E776
:10B17000014DF6E716FCFFFF17FCFFFFF7B50126B0
:10B18000037B040033422CD08279612311001940E3
:10B1900001911A4216D1FFF775FF18200CF07CF9C7
:10B1A0000E230500E356677B1822019900930CF0EB
:10B1B000C7F93A00280000990BF0A7FFA379A56012
:10B1C0003343A3716023A279A0681A4202D00BF026
:10B1D00086FEFEBD436940681B681840431E9841C7
:10B1E000F7E70148F5E7C04616FCFFFF012210B55E
:10B1F00083794173134204D080680CF02CF800204E
:10B2000010BD6022134203D080680BF06FFEF6E79A
:10B210000048F5E716FCFFFF70B5040000250C4B55
:10B220000E000833858085710360210018300AF014
:10B2300025F82000210020300AF043F8054B2000BB
:10B24000A680E5802572E560256165611C6070BDA2
:10B25000F8780200142500208379DB0702D5C1604D
:10B26000002070470048FCE716FCFFFF8379DB07EE
:10B2700001D5C06870470148FCE7C04616FCFFFFD7
:10B2800070B545690400002D22D0037A032B21D824
:10B29000FFF7ECFFA8622C200CF0FEF82C22002116
:10B2A00005000CF04DF9002263695A62236993424C
:10B2B00007D1636923610020237A6561013323721A
:10B2C00070BD1A005B6A002BFBD163695362F2E721
:10B2D0000148F5E70148F3E717FCFFFF13FCFFFF08
:10B2E000144B70B55A68144C002A03D000225A60DF
:10B2F0000132A2601A69002A17D000211961802347
:10B30000DB000E4DE3582868012B0FD1A923DB0089
:10B31000E1584942FFF7A0FF2868FFF7B1FF2B680B
:10B320005A69074BE2500123A36070BDFFF794FFF9
:10B33000F9E7C046FC100040001000401425002032
:10B340000405000003000069002809D00221054A15
:10B35000D167426A1A611A7A013A1A72024B19606D
:10B360007047C04604E100E000E100E010B50029AC
:10B3700003DB024B19600BF0FEFD10BD1825002009
:10B3800070B504001D0004AB1E7805F08FFF20008F
:10B390000E4B40302360FEF79BFA2300220001355C
:10B3A0004C331D700023E1215832013616700A3AE1
:10B3B000A3646365138053809381D381013B200094
:10B3C00063644902FFF7D2FF200070BD04770200DA
:10B3D000F7B580277F053E697C690822113C7443DC
:10B3E0000500210068460CF08FF8104B009A9A4235
:10B3F00019D0009300230193796928001339714310
:10B4000009F076FF019A2800009909F089FF2100D0
:10B41000280009F06DFF7969220013392800714373
:10B42000B30809F06FFF0198FEBDC046FECA0000D8
:10B43000F0B50D00ABB000210D920700302212A82C
:10B440001E000CF07DF828000CF0C2F8431C0C9391
:10B45000102B00D9B8E0202E00D9B5E02900380023
:10B4600009F08BFF0B90002854D129000C9A12A8E8
:10B470000CF04AF832000D9916A80CF045F880231C
:10B480005B051A695D690B92113D6A4338005E697C
:10B490000D92FFF79DFF0D9B302208330021040021
:10B4A0001EA80F930CF04CF831000B9B1339594335
:10B4B000380009F01DFF00230F9E0C930E930C9B88
:10B4C000A34246DA310030221EA80CF01DF812A962
:10B4D0001EA80CF06BF800282BD13D493800220043
:10B4E0001091119409F01CFF6A46099615AB23CB05
:10B4F00023C223CB23C223CB23C23800149B12992F
:10B50000139A09F01BFF01230E930C9B3036013375
:10B510000C93D4E70B9832000D9910300BF0E6FF36
:10B5200004000B980BF0B4FF002C9ED120002BB030
:10B53000F0BD6A46099621AB23CB23C223CB23C29D
:10B5400023CB23C238001E991F9A209B09F0F6FED8
:10B55000DBE7E6433021F61726404E430F9B9E194A
:10B560000E9B002B1CD10B9B981E06F06FFCA0427B
:10B570002CD017490134380022001091119409F0A1
:10B58000CFFE6A46099615AB23CB23C223CB23C239
:10B5900023CB23C238001299139A149B09F0CEFED4
:10B5A00038000D9909F0A4FE80235B0559690C232E
:10B5B0000B9A133963434A433800110002330D9A42
:10B5C00009F0A0FE0024B1E7024CAFE7024CADE762
:10B5D000FECA000017FCFFFF13FCFFFF8023F0B53D
:10B5E0005B051A6995B002925A6905910299113A60
:10B5F00051435C69029B133C05005C430391FFF7D8
:10B60000E7FE061E3AD030220021083408A8039F26
:10B610000BF096FF2100280009F06AFE002308378E
:10B6200001930493019BB34220DA3900302208A829
:10B630000BF06AFF059908A80BF0B8FF00280DD1A0
:10B640001A49721E28000691079209F069FE01232B
:10B650000493019B303701330193E3E722000C236D
:10B660003900280009F04EFE3034F2E7049B002B2D
:10B6700006D1320028000D4909F052FE0C4812E0B4
:10B680002800039909F034FE80235B0559690C23D7
:10B69000029A13394A43734311002800039A023374
:10B6A00009F030FE002015B0F0BDC046FECA000013
:10B6B0000CFCFFFF70B50400A280FA2200230800F2
:10B6C0000C49920008312160A3710B496061E2606E
:10B6D000A360638209F051FE051E09D0010020001D
:10B6E0000222103112300BF00FFF28000BF0D0FEB9
:10B6F000200070BD10790200F687020030B50225E7
:10B700008379040087B02B4204D1FDF7BDFDA379F6
:10B710001D43A571200009F076FE00281CD06B4661
:10B72000DD1C280009F066FE2B78002B17D001A83D
:10B7300009F05EFE0321019AD3170B409B189B1062
:10B740002382FEF747F8E368A18818180123A06058
:10B750001A0002A808F090FC002007B030BD0122BA
:10B76000064B1A60064A51680029FCD0002151603E
:10B77000044A1268019201225A60DBE700C00040CF
:10B78000FCC0004008C50040022802D10122014B44
:10B790001A7070470C28002070B5064D04002B78F5
:10B7A000002B04D1044803F03FFB01232B70200041
:10B7B00070BDC0460D28002089B7010070B50C008F
:10B7C00008F05BFA002810D00023144DA40A2B7057
:10B7D000200009F036FE002803D00A200BF034FDCB
:10B7E000F6E72B78002BFCD070BD02210C4B0D4AE4
:10B7F00099508021C90008005D58002DFCD0A1217E
:10B80000C9005C5019580029FCD0002199508021B2
:10B81000C9005A58002AFCD0E6E7C0460C28002090
:10B8200000E0014004050000F8B50C0015001E0002
:10B8300008F023FA002811D00023174F3B70320084
:10B840002900200009F0FBFD002803D00A200BF09E
:10B85000FBFCF4E73B78002BFCD0F8BD01220F493C
:10B860000F488C4642508022D2008358002BFCD0D7
:10B8700080270023FF009E4207DD9A00A958A150AF
:10B88000C259002AFCD00133F5E7002362468350F9
:10B89000C359002BFCD0E0E70C2800200405000071
:10B8A00000E00140F0B589B00E9D06000F00049243
:10B8B000002D04D1802252055569133DAD02AA0521
:10B8C000910D0591002A58D1BA05920D0192D21816
:10B8D000BC0A029230003A000499A40209F0B3FDB8
:10B8E000002832D1FF233900032225009B00194094
:10B8F000029B04339343039300230793039B8B42E0
:10B900003EDD032201980A40079BD200814232DBD0
:10B91000029888422FDD0498019FC01B405C904034
:10B920000343079303234F1C3B40059303231F420C
:10B9300009D189108900023B3000611807AAFFF77E
:10B9400073FF059B07933900D8E7002D15D0290018
:10B950003000FFF733FF802322005B002900300016
:10B96000FFF762FF21003000FFF728FF8023DB0094
:10B9700005990393C0E7685CD1E7024809B0F0BDC0
:10B980000020FBE717FCFFFFF8B50E00041D0500C3
:10B9900020001700FDF79CFF2000310008F020FB7D
:10B9A0000A4B1C68002C07D11C200BF075FD0022EF
:10B9B0001100040000F0A2F931683A0020000431BF
:10B9C00000F038FC28602800F8BDC0462025002083
:10B9D00010B50C0001681300002905DB03482200A4
:10B9E000006800F091FC10BD0148FCE72025002014
:10B9F00016FCFFFF10B50C0001681300002909DBDD
:10BA0000002A09DB002C07D004482200006800F05F
:10BA1000ABFB10BD0248FCE70248FAE720250020F6
:10BA200016FCFFFF17FCFFFF70B50D000168040056
:10BA3000160000290DDB084802230022006800F0F0
:10BA400067FB002804DB320029002000FFF7C0FF5D
:10BA500070BD0248FCE7C0462025002016FCFFFF11
:10BA6000016810B50400002908DB054B186809F0CF
:10BA7000C9FD002801DB034B236010BD0248FCE731
:10BA80002025002013FCFFFF16FCFFFFF0B5C46863
:10BA90000500408AAF6800020019800A8002001B7E
:10BAA000000A83B2180085B039000430029306F012
:10BAB0003DFB002689B2029B994223D0081D83B228
:10BAC000002203930B0001925A00125B9446002A55
:10BAD0000DD0154A94450CD0019B002B02D0002EAE
:10BAE00000D10E00390006F021FB89B2E3E7012204
:10BAF00001920133039A9BB29A42E5D1698209020D
:10BB0000641807E0281D002E07D03602A419210072
:10BB1000FFF754FE200005B0F0BD044C2168FFF78C
:10BB20004DFE2468F6E7C046FFFF00001C250020FC
:10BB300070B58AB06A4604000026038AD381238A3E
:10BB4000E168251DB3420CD97300C9180E220023E9
:10BB5000280000936A4402330136FFF7A3FEB6B211
:10BB6000EDE76846124A0026C2810E225B006A4455
:10BB7000C918280002230096FFF794FE0D4904A877
:10BB80000BF01EFD6B46218A6A4619848023DB0177
:10BB90005384A36809020993E36828005918616176
:10BBA0001823009604AAFFF77DFE30000AB070BD8E
:10BBB000FFEFFFFFFE870200F7B5040008000E004C
:10BBC00015000BF005FD3018B04204D303782F2B7D
:10BBD00001D00138F8E7431C0193002D00D16569BD
:10BBE0002E8AE7683502ED192C0023006A1CFF320B
:10BBF0001833934207D97600F65B0B4B9E420FD069
:10BC000035027D192C008022638AD201134205D0AF
:10BC1000200001990BF0CAFC002802D01834E4E798
:10BC200000242000FEBDC046FFEF0000002270B5DA
:10BC3000C668050033880F48934207DD5100715AEA
:10BC4000814214D8994212D10132F5E71B02F6184D
:10BC5000300009490BF0AAFC041E08D173692800C2
:10BC60006E61AB6009F030FC2882200070BD034C8F
:10BC7000FBE7C046FEEF0000FE8702000CFCFFFF62
:10BC800070B5050000681400030001221340104243
:10BC90002AD1002C2ADB6B826B61AB61002907D1B2
:10BCA00013498B0504D08023890A8902DB00C91857
:10BCB000002C06D180235B055C69133CA402641A46
:10BCC000A40A2800E960FFF7B1FF002808D0A4000B
:10BCD0002800AC6009F0F8FB28822800FFF728FF55
:10BCE000012300202B6070BD0248FCE70248FAE700
:10BCF0001C8C020016FCFFFF17FCFFFF70B5040050
:10BD000004300D001600FFF747FD002332002360CA
:10BD100029002000FFF7B4FF034B1A68002A00D166
:10BD20001C60200070BDC04620250020F0B5040036
:10BD30008BB00992C2680B02D3189B0A9B02049332
:10BD40000591FFF7A3FE049BE26803909B1A1B0A70
:10BD50009FB23B1D9BB208930290E6687B009B5B01
:10BD6000324A013B9BB293421ED83B02F618059B18
:10BD70003500BB4236D1099B022B33D13300F0335F
:10BD800006938022029BD201991B6B8A6918134289
:10BD900006D000232A000093201D1833FFF782FDF0
:10BDA000069B1835AB42ECD1029B01370133FF33C0
:10BDB0000293089BBFB29F42CFD104342000049964
:10BDC000FFF7FCFC00258023039A0499DB00200088
:10BDD0000095FFF767FD20000399FFF7EFFC2800AF
:10BDE0000BB0F0BD231D07936369B34214D9731CD4
:10BDF000FF330693029B991B2B886918002B06D0F2
:10BE000000232A00009307980233FFF74BFD069B9F
:10BE10000235AB42EED1C7E7002300930133320075
:10BE20000299FF33201DFFF73DFDBDE7FDFF000038
:10BE300070B50400468AA168701C06F077F90025E9
:10BE40000C4A89B28E420ED0E0684B001B5A9342D6
:10BE500003D10D006182280070BD002B00D10D00C0
:10BE6000013189B2EEE7002DF5D0200009F075FB15
:10BE70006582F0E7FFFF0000F7B505000091088A32
:10BE8000EB680102C9180A0000244F1CFF37BC46AA
:10BE900017001837674507D94000C05A1E4A90421C
:10BEA0001DD0010259180A00568A01961227D65F42
:10BEB000002E12DB8026019FF601374202D1002CB2
:10BEC00000D114001832E0E7E11A090A0222280022
:10BED00089B2FFF72BFF2000FEBD1400FBE7002C0A
:10BEE000F2D12800FFF7A4FF071EF4D0009B1C8AA4
:10BEF000EB6862002100D45A074A9442F9D13A0013
:10BF0000280009F0EEFA22003900280009F0E9FAC9
:10BF1000EC683F02E419DEE7FFEF0000F0B5060031
:10BF20008BB008000D00170003930BF051FB2C1889
:10BF3000AC4204D323782F2B01D0013CF8E7390021
:10BF40003000FFF799FF051E03D1002528000BB034
:10BF5000F0BD3000FFF76CFF071EF6D0611C04AC8B
:10BF600020000BF02DFB039B2782002B12D0C02357
:10BF7000DB01638200236361002322002900009318
:10BF8000301D1833FFF78EFC3000218A034A09F078
:10BF9000A8FADBE701235B426382ECE7FFEF0000D6
:10BFA000F0B589B005930C00CB684D688021060080
:10BFB00004921B8A49000393C368039A8D4205D9F2
:10BFC0005200D25A013D0392FF3DF6E700271202CC
:10BFD0009B185B190693059B9F4242DA8023059AC2
:10BFE0005B00D21B5B1B02929A4200DD0293029B14
:10BFF000002B11D0331D07936368A268FB18002043
:10C00000934202D23000FFF741FD0090029B049A58
:10C010000699301DFFF746FC029A029B9446ED18E4
:10C02000FF18049B6344049380235B009D42D2D19C
:10C03000059BBB42CFDD3000FFF7FAFE051E10D096
:10C0400001000D4A300009F04CFA2A003000039933
:10C0500009F047FAF2682B02D318039506930025DE
:10C06000B9E76368A268FB189A4200DA1A00380040
:10C07000A260636009B0F0BDFFEF0000F0B5036897
:10C0800006008BB0DB0739D5002209F097FA041EB1
:10C0900036D00100300009F0A6FAE368A1685A69B9
:10C0A00000208A4218D004AD2A0083CB83C283CB00
:10C0B00083C2A368E1686B614A8A124B371D9A42BA
:10C0C0000CD18023DB016B8200232A00009338000F
:10C0D0001833FFF7E7FB00200BB0F0BD0E22002362
:10C0E0006A4413801231009338000233FFF7DAFB01
:10C0F00021693000FFF7C0FE0100E5E70248EBE7E9
:10C100000248E9E7FFFF000016FCFFFF17FCFFFFF6
:10C11000F8B51E00036807001400DB071ED50022D7
:10C1200009F04CFA051E02D10D4C2000F8BD0100AB
:10C13000380009F058FA012E06D06B68022E0AD09A
:10C14000E418042E00D01C00002CEDDBAB68A342E9
:10C15000EAD36C60E9E7AB68E418F5E7014CE4E783
:10C1600017FCFFFF16FCFFFFF0B51C00036885B04D
:10C1700007000392DB0755D5002209F01FFA061EBF
:10C1800052D0039B002B4FD0002C4DD00100380023
:10C1900009F029FA7568B3685B1B0293A34200DDBE
:10C1A00002948022F36852001B8A0193954207D9BA
:10C1B000019BF9685B005B5A013D0193FF3DF5E788
:10C1C0000024029B9C4227DA8023029A5B00121B08
:10C1D0005B1B00929A4200DD0093009B002B08DD60
:10C1E000019B009A1902FB680398591849190BF032
:10C1F0008BF9009A009B9446E418039BAD186344A6
:10C20000039380235B009D42DBD1019BFA685B00B6
:10C210009B5A00250193D4E773681B1973602000B3
:10C2200005B0F0BD014CFAE7014CF8E716FCFFFF42
:10C2300017FCFFFFF7B5036805000F000192DB074D
:10C2400058D509F0F1F9002816D03900280009F076
:10C2500059F9061E10D0020039002800FFF7ACFC87
:10C26000AA690021040013000091002B14D0002CB7
:10C2700004D1019B5B0733D41F4830E0D968A14249
:10C2800038D059880098814204D1030001330093CB
:10C290001300EAE75B69E8E7002CEAD01C200BF00A
:10C2A000FBF80423019A9A43009B02804380618A31
:10C2B000124A0023914200D063690821019A019F2C
:10C2C00083600A400F4200D01A0000230383AB6949
:10C2D000426043616B46C4600661A8611888FEBD78
:10C2E0000023320039002800FFF718FE041ED5D1C4
:10C2F0000348F4E70348F2E717FCFFFFFFFF0000E5
:10C3000013FCFFFF16FCFFFFF8B51E0003680400D6
:10C310001700DB0716D5002209F050F9051E13D0CF
:10C32000002F11D0002E0FD00020864209DB2900FB
:10C33000200009F058F933003A0029002000FFF7E7
:10C340002FFEF8BD0148FCE70148FAE716FCFFFFA5
:10C3500017FCFFFF7FB501220500FFF76BFF0028E8
:10C3600022DB01000122280009F028F90600C36839
:10C37000198A0E4B994208D0EA684B009C5A280053
:10C38000002209F0AEF82100F3E70E220024F16844
:10C390006A44148002231231281D0094FFF782FAA8
:10C3A00030000BF075F8200004B070BDFFEF000006
:10C3B00080235B055B69024A133B9B021360704755
:10C3C0001C25002008B4024B9C46443808BC60473A
:10C3D00055560200FA21F8B50389C90004005943F3
:10C3E000324809F0C3FCFA21890005F02FFD304FD7
:10C3F000A17A2081380009F0B9FC2300260025002D
:10C4000022894C33A072A0361A808C3500232A2250
:10C410003178286808F04EFC002844D11F235B22A5
:10C420003178286808F046FC00283CD120235C22A3
:10C430003178286808F03EFC002834D101232C22F2
:10C440003178286808F036FC00282CD101232D22F1
:10C450003178286808F02EFC002824D101232E22F0
:10C460003178286808F026FC00281CD1A17A380011
:10C4700009F077FC0E22C3B23178286808F01AFC64
:10C48000002810D1FA21238989005943074809F06F
:10C4900068FC012303432A2231782868DBB208F0C4
:10C4A00009FC002800D00348F8BDC04630790200DE
:10C4B000287902000EFCFFFF08B4024B9C4644386A
:10C4C00008BC6047D5C30100074B10B51A00040033
:10C4D00008323C3302604364443007F0F3FF20002D
:10C4E00007F01CFF200010BD9079020008B4024B39
:10C4F0009C46443808BC6047C9C4010008B4024BDC
:10C500009C46443808BC60475F560200F0B50425DD
:10C510008379040089B02B4204D1FCF7B5FEA379DE
:10C520001D43A57120009030FEF728FE0025A8428B
:10C530000FD12300A033197820000C2305AE0093FF
:10C540008C30330001220068FEF79CFB051E03D0EF
:10C55000204D280009B0F0BDB1883088CABA0A2140
:10C560009446F2887388D2BA02923789728902AEF1
:10C5700089191F2652BA0A80A17ADBBA4B4312B23C
:10C580005B42C0BA03924843DA173240D3185B11BA
:10C59000A361C3173340181863464B43D917314082
:10C5A000C9186423029A49115B42FFBA21625F43B2
:10C5B0000399C8335A434B43E2674011221DE0619F
:10C5C000A7672000D36707F022FF2000443007F060
:10C5D00080FFBEE70EFCFFFF08B4024B9C464438C8
:10C5E00008BC60470DC50100F7B51E00040008AB8C
:10C5F0001B881500019309AB1A8800910AAB310022
:10C600001F88FDF733FB20003A0031004430FDF76E
:10C6100087FD134B20001A003C336364230008326B
:10C620002260009A8C331A60AB8890308380AB799B
:10C63000AA6883710B4BA98903600E23EB568260B5
:10C6400022009C32118083732300019AA0330321BE
:10C650001A80FEF7CBFD2000FFF7BCFE2000FEBDD8
:10C6600090790200E4770200F8B5FA260189B60055
:10C6700004007143254809F079FB310005F0E6FB21
:10C68000234FA17A2081380009F070FB2500A072A9
:10C69000583500232A222978606C08F00BFB00280B
:10C6A00032D110232B222978606C08F003FB00287C
:10C6B0002AD101232D222978606C08F0FBFA00288A
:10C6C00022D101232E222978606C08F0F3FA002889
:10C6D0001AD1A17A380009F044FB0E22C3B229789E
:10C6E000606C08F0E7FA00280ED1218907487143F1
:10C6F00009F037FB012303432A222978606CDBB25F
:10C7000008F0D8FA002800D00248F8BDF8790200F5
:10C71000F07902000EFCFFFF10B50400034B083354
:10C72000036007F0FBFD200010BDC046587A0200F0
:10C730007FB50425837904002B4204D1FCF7A4FDC6
:10C74000A3791D43A57120004830FEF717FD002591
:10C75000A8420DD1230058331978062302AE009366
:10C7600001223300606CFEF78DFA051E03D00D4DDB
:10C77000280004B070BD002104200222A37A3056A4
:10C780007156B25659435A434343DB002362D200E9
:10C7900023685242C90020009B6AA261E161984768
:10C7A000E6E7C0460EFCFFFFF8B504000F001900D5
:10C7B00006AB1E8807AB15001A88FDF757FA0F4B1A
:10C7C0006764083323602300AA8848339A80AA79D3
:10C7D000A9689A710A4AA889A2640E22AA562165FC
:10C7E0002100543108809A730023A3712300583329
:10C7F0001E802000FFF738FF2000F8BD587A0200A5
:10C80000E477020010B50400034B0833036007F01F
:10C8100059FE200010BDC046EC7A0200F0B50700BA
:10C820005C37040087B0002310223978806C08F050
:10C8300041FA00283BD103260F2502ABED18012356
:10C84000397808220093A06C2B00FEF71BFA194BD5
:10C8500098422CD02B78334203D06420FCF7B2FDF1
:10C86000EAE7FA262189144DB6007143280009F041
:10C870007DFA310005F0EAFA2081A02311223978EF
:10C88000A06C08F017FA002811D1A36C218903933A
:10C89000714328003F7809F064FA01231843C3B2BA
:10C8A00010223900039808F005FA002800D001484A
:10C8B00007B0F0BD0EFCFFFF8C7A020070B50825B2
:10C8C0008379040086B02B4204D1FCF7DDFCA37908
:10C8D0001D43A57120004C30FEF750FC051E0DD005
:10C8E00023005C331978062304AE00930122330041
:10C8F000A06CFEF7C7F9051E03D00E4D280006B048
:10C9000070BD6423642132884942D2BA534372888D
:10C91000A363D2BA4A4362630E22B3886A445BBA05
:10C9200013801BB24B43E363236820001B6A9847C4
:10C93000E4E7C0460EFCFFFFF8B504000F00190045
:10C9400006AB1E8807AB15001A88FDF7E9FB0D4BF7
:10C95000A764083323602300AA884C339A80AA79FD
:10C96000A9689A71084AA889E2640E22AA566165EC
:10C970002100583108801E8220009A73FFF74EFF75
:10C980002000F8BDEC7A0200E4770200F0B5FA2549
:10C990000189234FAD0085B004006943380009F0D8
:10C9A000E5F9290005F052FA1E4EA17A20813000E7
:10C9B00009F0DCF9636CA0720293230058332189DB
:10C9C00001931B7869433800039309F0CAF90723E0
:10C9D0000343202203990298DBB208F06BF9002888
:10C9E0001AD1019B22221978606C102308F062F999
:10C9F000002811D1019BA17A30001F78656C09F0E5
:10CA0000B0F980235B420343232239002800DBB2C4
:10CA100008F050F9002800D0034805B0F0BDC0462A
:10CA2000207B0200187B02000EFCFFFF10B5040003
:10CA3000034B0833036007F071FC200010BDC046B3
:10CA4000907B0200F0B504258379040085B02B4269
:10CA500004D1FCF719FCA3791D43A57120004830CF
:10CA6000FEF78CFB051E0DD02300583319780623E2
:10CA700002AE0093A8223300606CFEF703F9051E96
:10CA800003D0144D280005B0F0BD1F200023F25E36
:10CA9000D31703409B180222B15E5B11CA170240F4
:10CAA00052180421775E3380F9170140A07A5211A1
:10CAB0004343C919728049114243B18041435B42EB
:10CAC000E3612368524220009B6AA2612162984779
:10CAD000D8E7C0460EFCFFFFF8B504000F001900B0
:10CAE00006AB1E8807AB15001A88FDF7BFF80F4B81
:10CAF0006764083323602300AA8848339A80AA79A0
:10CB0000A9689A710A4AA889A2640E22AA562165C8
:10CB10002100543108809A730023A37123005833F5
:10CB20001E802000FFF732FF2000F8BD907B02003E
:10CB3000E4770200F7B5FA2504000189134EAD0031
:10CB40006943300009F012F9290005F07FF9270048
:10CB5000A36C208100935C373B7881B2694330003D
:10CB6000019309F0FEF86022C3B20199009808F021
:10CB7000A1F8002807D1012362223978A06C08F0BF
:10CB800099F8002800D00248FEBDC046C47B0200D0
:10CB90000EFCFFFF10B50400034B0833036007F0E1
:10CBA00091FC200010BDC046EC7B02007FB508253B
:10CBB000837904002B4204D1FCF766FBA3791D4363
:10CBC000A57120004C30FEF7D9FA051E0DD02300C8
:10CBD0005C331978062302AE0093E8223300A06C80
:10CBE000FEF750F8051E03D00B4D280004B070BDB1
:10CBF0000223F25E96235B425A4362630021725E17
:10CC000020005343A3630423F25E96235343E3635C
:10CC100023681B6A9847E8E70EFCFFFFF8B504009D
:10CC20000F00190006AB1E8807AB15001A88FDF728
:10CC300077FA0D4BA764083323602300AA884C338E
:10CC40009A80AA79A9689A71084AA889E2640E2292
:10CC5000AA5661652100583108801E8220009A730F
:10CC6000FFF768FF2000F8BDEC7B0200E4770200CC
:10CC700010B50400054B083303601C3007F053F96E
:10CC80002000183007F04FF9200010BD187C02007A
:10CC9000FF23F0B52C4E8DB033700023040069469D
:10CCA0000088009304F0AEF8002802D16B469B7810
:10CCB0003370264D2B68DB68002B07D100232088BA
:10CCC0001A00190008F03BFD0DB0F0BD3378032BBE
:10CCD000F4D81F4901A8FCF7C1FD2B6801A9DD6844
:10CCE00004A807F075F9280004A908F075FB0027CF
:10CCF000050004A807F017F9BD421ED02900202224
:10CD0000103104A80AF000FC28000AF0C1FB3178B9
:10CD100004ABC9005918082202A80AF0F5FB012348
:10CD20000822208802A908F00AFD0137002804D152
:10CD30000C212088074A08F000FD01A807F0F3F84D
:10CD4000002FBBD0C0E7C046802000203025002047
:10CD50000E880200FFFF0000F0B58379040091B057
:10CD60005B071BD5FCF736FD00232269801A994129
:10CD7000994203D1F533FF3398420FD3A0680028BE
:10CD800008D0354B1D8809F069F803681522290081
:10CD90001B6A98470422A3799343A371A3799B0745
:10CDA00058D52E4E3368DB68002B4FD02C4F3B7884
:10CDB000032B4BD8284B2B491B8804A80193FCF765
:10CDC0004DFD336804A9DD6808A807F001F908A93A
:10CDD000280008F001FB050008A807F0A4F80823C4
:10CDE00002AAD3800198073B063206A908F0A9FCE5
:10CDF000002D08D029002022103108A80AF084FB59
:10CE000028000AF045FB3D7802ABDA88ED0008AB5C
:10CE10005D19280006A90AF069FB002813D0082232
:10CE2000280006A90AF070FB336804A9DD6805A88C
:10CE300007F0CEF82023280008AA05A908F0D2FAA6
:10CE400005A807F070F804A807F06DF80222A3798E
:10CE50009343A37111B0F0BDB0270020302500200E
:10CE6000802000200E88020070B5036804000D1EAB
:10CE700009D15B699847FA2080006843074904F0AC
:10CE8000E5FFE08070BD9B689847A842F3D923680E
:10CE900020009B6898470500EDE7C046710200003E
:10CEA000F0B50400150085B001930AAB1F880BABE9
:10CEB0001B78461C02930EAB1B78102203930B7851
:10CEC00003704B8A0131438230000AF01DFB65611B
:10CED00000250122019B27836383039BE58323773E
:10CEE000029B2000F377A31CDA770C9B0C2663626D
:10CEF00023000D9A283329001A705D7032009D704E
:10CF00002C300AF01DFB2000064B3200A3632900E1
:10CF1000E56340300AF014FB2000034B2565E36411
:10CF200005B0F0BD595702004B570200F0B507009D
:10CF30001500A1B002C706006B4918A81C0008F034
:10CF4000CCFC2B1E03D028000AF042FB83B2012246
:10CF500004920022039202920232019200932A006C
:10CF600018A93800FFF79CFF33006049583318A810
:10CF7000079308F0B2FC231E03D020000AF028FB20
:10CF800083B20122049200220392029202320192A1
:10CF90000093220018A90798FFF782FF3300544935
:10CFA000AC3318A8089308F098FC269B002B03D0FC
:10CFB00018000AF00DFB83B20122049200220392B2
:10CFC0000292023201920093269A18A90898FFF75C
:10CFD00067FF731CFF33474918A8099308F07DFCCD
:10CFE000279B002B03D018000AF0F2FA83B201222B
:10CFF00004920022701C039202920232019200936A
:10D00000279A18A9FF30FFF74BFF33005533FF3342
:10D01000394918A8099308F060FC289B002B03D01D
:10D0200018000AF0D5FA83B201220492002203927A
:10D030000292023201920093289A18A90998FFF7E8
:10D040002FFF3300A933FF332C4918A80A9308F0A7
:10D0500044FC299B002B03D018000AF0B9FA83B2D4
:10D0600001220492002218AC039202920232019231
:10D0700000932100299A0A98FFF712FF204B1B7892
:10D080000B93002B2DD1079B1E491393089B0DA8D2
:10D090001493731CFF331593099B129716930A9BE5
:10D0A00012AD179308F019FC1D21492006AB1B7F18
:10D0B0001022237006ABDB8D638206ABC918C01843
:10D0C0000AF022FA062323750B9B3068A383A5611F
:10D0D00008F0C8FE036821001B6898470122084B2E
:10D0E0001A70300021B0F0BD292A0000242A000067
:10D0F000252A0000272A0000262A0000282A0000EE
:10D100000E2800200A18000070B5002504000B4B03
:10D110008580083385710360C1601830FCF7D8FB47
:10D1200020001C30FCF7D4FB0123621CD377044A97
:10D130002000A56065611460A37170BD187C0200B9
:10D1400030250020FA2130B585B0040001230222E9
:10D150006846890006F090FF074D2868002809D02E
:10D1600008F0F4FB2188054B2A6819800223917985
:10D170000B43937105B030BD30250020B02700204F
:10D1800010B50C0007290FD8806808F067FE074B20
:10D19000195703685B6C984743425841044B40421F
:10D1A0001840044BC01810BD0348FCE78D890200ED
:10D1B000EA03000016FCFFFF17FCFFFFF0B5A14CCF
:10D1C0000E00A5440400069396AB1B789E4908A860
:10D1D00007930592FCF742FB200031001C3006F05B
:10D1E000FFFE9A4909A8FCF739FB99490AA8FCF700
:10D1F00035FB0CAD09AA08A90BA811AF06F00FFF6B
:10D20000320028000BA906F00AFF0AAA29003800FC
:10D2100006F005FF390008A806F0E2FE380006F027
:10D2200082FE280006F07FFE0BA806F07CFEC020E0
:10D23000C00001F0EFFD08200AF02EF906000021E1
:10D2400001F0B4F808220021A6600DA80AF078F9D0
:10D2500000230C933B0007CD07C37E4B3900FB60D6
:10D26000002330003B6108F0E2FDA06808F0F6FD05
:10D2700008220021049012A80AF062F914200AF092
:10D280000BF9754B3A001193030062CA62C3734BEA
:10D29000049DC3600023A43503612B68002B00D0DC
:10D2A000C9E02860A06808F0DDFD08220021049094
:10D2B00012A80AF045F914200AF0EEF8684B3A007B
:10D2C0001193030062CA62C3664BC360002303610B
:10D2D000049B1B6B002B00D0AFE0049B11AE1863C6
:10D2E000A06808F0BBFD08220021049012A80AF0F3
:10D2F00027F914200AF0D0F85B4B1193030026CED7
:10D3000026C35A4B049DC3600023983503612B68E4
:10D31000002B00D093E02860012004AB1B7F04AAFF
:10D3200003430BA9137708F00EFAA06808F09EFDDE
:10D3300003684F495B6A9847A06808F097FD036847
:10D340004C499B699847A06808F090FD002103684C
:10D3500000911D680A000B00A847079B002B0AD00C
:10D36000200008F0FCFA032805DDA06808F07EFD27
:10D370000368DB68984706212000FFF701FF1820AB
:10D380000AF08AF8A16800F045FA3B4B3B4A1B685B
:10D39000A16803933A4B38001B6800250293394B70
:10D3A0000CAE1B680193059B1B6804330093364B3E
:10D3B00012681B68FFF7BAFD30200AF06DF8069A74
:10D3C000A16800F0DDFAA06808F048FD03683100AC
:10D3D0009B6A98472D4BA0680C93B58008F03EFDE2
:10D3E00003683100DB6A98470621A06808F081FADB
:10D3F000089A09219378A068043208F08DFAA06891
:10D4000008F02CFD0571A06808F028FD3221FFF717
:10D410002BFDA06808F022FD08F055FA0AA806F0D6
:10D4200082FD09A806F07FFD08A806F07CFD912387
:10D430009B009D44F0BD036133E703614DE7036149
:10D4400069E7C046BCFDFFFF1A880200378802006A
:10D45000288802006757020045D101007557020075
:10D4600091CC010083570200B1570200915702008E
:10D4700091D40100C5D401002C25002028250020CE
:10D4800008200020242500200C2000200800100087
:10D4900013B506226846FCF7F1F9094B1C68002C0D
:10D4A0000AD0694601A806F093FD200001A908F002
:10D4B00077FA01A806F037FD684606F034FD13BD83
:10D4C00030250020002373B501AE0C0031000500AB
:10D4D000019303F097FC002802D1B278064B1A7032
:10D4E000064B1868002806D061426141044BC9B25E
:10D4F0001D8008F05DFA73BD8020002030250020DB
:10D50000B027002030B5284CA9B06A220D000DA824
:10D51000210009F0F9FF0DA903A8FCF729FA03A9D6
:10D5200006A806F0D9FD01230193013BFF3B0093C0
:10D530000533FF33642206A92800FDF749FB06A83E
:10D5400006F0BDFD210019226A3106A809F0DCFFB2
:10D5500005220024110006AB04A806F0E4FD04A98E
:10D5600005A806F0B9FD23002200280001940094CC
:10D5700005A9FDF795FA05A806F0A1FD21002800F0
:10D58000FDF756FB05340520FBF71CFFFF2CF5D1FA
:10D59000FA208000FBF716FF04A806F090FD03A810
:10D5A00006F08DFD29B030BD0A890200F0B5904B20
:10D5B0008DB005921A68082304000F00D16C07A8EB
:10D5C0000B43D3648B49FCF749F98B4908A8FCF756
:10D5D00045F9220000251C3207A90BA806F01FFD03
:10D5E00008AA0BA909A806F01AFD0BA806F09BFCD7
:10D5F000631CDD77A06808F031FC03685B6998471D
:10D60000A06808F02BFC030006000A331F22290043
:10D610001800039309F094FF039B3000DD7708F0B6
:10D6200049F90621A06808F064F9099A092193785C
:10D63000A068043208F070F9A06808F00FFC0571CA
:10D64000A06808F00BFCC821FFF70EFCA06808F0EA
:10D6500005FC0581A06808F001FC08F034F93800E9
:10D66000FDF7B2F92000FBF70FFE39002000FFF7AD
:10D6700049FF3900200008F0AEF9FF230495039319
:10D680006269012316001E401A4232D05B490AA883
:10D69000FCF7E8F90AA90BA806F01EFD00220BA969
:10D6A0001300019200923800FDF7FAF90BA806F07A
:10D6B00006FD049B002B47D1039B043B0393039B74
:10D6C000282B44DC380007F0E8FA039B002B00DC31
:10D6D0000496059806F0E2FE002806D00123626950
:10D6E0009A4313000422134363610AA806F0E7FC7F
:10D6F000002504226369134234D0FF213800C82674
:10D70000FDF796FA0025B600A36902229B5EAB42A4
:10D7100023DD200029B2183006F097FC0023010019
:10D7200038001A007430FCF7EDF93000FBF74AFEC0
:10D73000380007F0B2FAC820FBF744FE0222636902
:10D7400013420AD10135DFE7039B0433B6E7039B9D
:10D75000FE2BBEDD00230493BBE7FA208000FBF71D
:10D7600031FE00250222636913421ED01E000632DC
:10D770001640134224D022490AA8FCF773F90AA9DB
:10D780000BA806F0A9FC00220BA91300019200923D
:10D790003800FDF785F90BA806F091FC1948FBF756
:10D7A00011FE0AA806F08BFC174D6420FBF70AFE59
:10D7B000164B01359D4200DC62E706F070FA5FE728
:10D7C00013490AA8FCF74EF90AA90BA806F084FC35
:10D7D000330032000BA9380001960096FDF760F97E
:10D7E0000BA806F06CFC0AA806F069FCDDE7C04651
:10D7F000AC2400202A880200288802003A8802000F
:10D800007F880200983A00008C0A00008B0A000012
:10D81000BC8802000022544BF0B5083303600600B8
:10D8200081600F001000A9B00BABD1180132487015
:10D83000102AFAD119000F3A4C4C1A700E32105DB2
:10D8400001310870013AFAD2997B5A7B09020A43E6
:10D8500031000C310391452025211B7813AD2B702D
:10D8600002AB6A82C9181022C01809F04DFE039B52
:10D8700000246B6101232B7719930A33FF332B8428
:10D8800002AA9C3B9B18210008221C701FA8EC8355
:10D890006C622C8509F054FE354B0822210024A827
:10D8A000AB63EC63EC6209F04BFE2200314B2C655C
:10D8B0002C64EB640595347306AD631901345A701A
:10D8C000102CFAD101232A002B482B700E33195C3F
:10D8D00001321170013BFAD211212520AA7B6B7B0A
:10D8E00012020BAC13432A78638202ABC918227070
:10D8F000C018102209F008FE0123237505ABA361AF
:10D9000000233800A38308F0ADFA036821001B68E8
:10D91000984713ABDB8BB068B38208F0A3FA002200
:10D9200003680092B18A039ADC680123A047B068BB
:10D9300008F098FA0700142009F0AEFD0022012338
:10D94000040002610692290040C00832079309F0E2
:10D95000DBFD0A4BE360BB69002B03D13000BC61E7
:10D9600029B0F0BD2361F9E7307C020095890200FF
:10D97000595702004B570200A5890200375A02008E
:10D98000F0B500240500744BDBB008330360816000
:10D99000C260724922008480847145A808F0EBF8C7
:10D9A0002B0014330127042608931223089A0497A6
:10D9B00001930096230045A9039402941BA8FFF746
:10D9C0006FFA2200664945A808F0D5F80C232A0012
:10D9D0000497103201930096230045A90394029402
:10D9E00030A8FFF75DFA22005E4913A808F0C3F8DB
:10D9F00029001C31099108212300099A04970191FB
:10DA0000009613A90394029445A8FFF749FA22004F
:10DA1000554913A808F0AFF8542009F03DFD29003E
:10DA200012220423060018310791049701920093F3
:10DA30000A00230013A903940294FFF731FA30007F
:10DA40004A4B0822AE62F56213A930301393149446
:10DA500009F05AFD3200464B2932B3630999177019
:10DA6000079804222C61EC6109F04EFD042207990D
:10DA7000089809F049FD5E2204ABD218D777B2228C
:10DA800004ABD218D77704AAD31D1BAAFF330A927E
:10DA900030AADF770B92B31C45AADF7735490C9289
:10DAA000AC8522000EA80D9608F065F828213D20CF
:10DAB00004AA52181378143104AA5218137004AA35
:10DAC000538F123152181380253904ABC918102214
:10DAD000C01809F019FD5021042304AA521813702C
