:020000021000EC
:1080000000400020011302003D1302003F13020054
:108010000000000000000000000000000000000060
:1080200000000000000000000000000041130200FA
:10803000000000000000000043130200451302008E
:108040004713020051B20100BD190200471302009C
:1080500047130200000000007913020047130200DA
:1080600047130200951B0200451802004713020047
:108070004713020047130200471302004713020090
:108080004713020047130200471302004713020080
:1080900047130200A5F7010081F701004713020012
:1080A0004713020047130200000000000000000018
:1080B00000000000000000000000000000000000C0
:1080C00010B5064C2378002B07D1054B002B02D0AE
:1080D000044800E000BF0123237010BDB820002039
:1080E00000000000C0890200044B10B5002B03D033
:1080F0000349044800E000BF10BDC0460000000076
:10810000BC200020C0890200402292029A1A9246A6
:108110007047C046174B002B00D1134B9D46FFF70D
:10812000F3FF00218B460F461348144A121A0FF032
:1081300076F90E4B002B00D098470D4B002B00D04A
:1081400098470020002104000D000D48002802D0AF
:108150000C4800E000BF0BF04BF8200029000EF0A7
:1081600060FF0BF02FF8C046000008000000000080
:108170000000000000400020B0200020D82800208F
:10818000000000000000000070B5FA240125A400E2
:10819000184B5A6901325A613B2A04DD00225A61A8
:1081A0001A6901321A611A693B2A04DD00221A6138
:1081B000DA680132DA60DA68172A04DD0022DA6050
:1081C0001A6801321A605A680B48511E8900095812
:1081D0001868884202DD01321D605A605A680C2A14
:1081E00004DD00225A609A6801329A60200001F092
:1081F000D9F8CDE7D4200020DC75020084B007B5A3
:1082000007930E4B06921A780591002A12D101327B
:108210001A700B4B069A19605A60079A09499A60BE
:10822000089A0948DA60099A01921A610A9A5A6111
:1082300000F0EEFF03B008BC04B01847FE27002092
:10824000D42000209D94010089810100014B187801
:108250007047C046FE270020020030B5024B32CBEB
:1082600032C232CB32C230BDD4200020094884B0A3
:1082700082B005938360069B0391C360079B0492C1
:1082800001930361089B01604260436102B004B046
:108290007047C046D420002010B50400034B036093
:1082A00040300BF0BCFD200010BDC046147602002B
:1082B000F0B595B00793784B784C1B7804900591F6
:1082C0000692002B00D1D8E00123754E754908A80D
:1082D000337001F0B7FB08A90EA80BF069FE00226D
:1082E0000EA91300019200926F4802F0C9FB0EA87C
:1082F0000BF051FEFA20C00001F054F825686B49DC
:108300000EA801F09BFA02220EA928000DF05FFCD6
:108310000EA80BF084FD256865490EA80BF0D4FD6E
:1083200002230EAA290009A805F078FD0EA80BF07B
:1083300076FD09A90CA80BF0C7FD0CA90EA80BF03F
:1083400033FB0CA80BF06BFD5A4D2800FFF77EFFA6
:108350006A4611AB00284ED083CB83C228000E9909
:108360000F9A109BFFF782FF534D0BA829000BF0CB
:10837000ABFD01220BA90CA803F0BEFA0BA80BF071
:108380004EFD0CA80CF0F8FF002853D027684B498D
:108390000BA801F053FA02220BA938000DF017FCCC
:1083A0000BA80BF03CFDFA20400000F0FBFF102270
:1083B0000CA90AA80CF0BAFF0A9B276802229B5E50
:1083C000002B21DD0AA90BA80BF07EFD0BA90222D0
:1083D00038000DF0FCFB0BA80BF021FD10220CA9BE
:1083E0000BA80CF0A3FF0BA90AA80BF075FD0BA8B6
:1083F0000BF015FDE0E783CB83C228000E990F9A9E
:10840000109BFFF7FBFEAFE72D490BA801F016FA12
:1084100002220BA938000DF0DAFB0BA80BF0FFFCD1
:108420000CA803F0D5FAFA20400000F0BBFF0AA820
:108430000BF0F5FC246823490BA801F0FFF9022298
:108440000BA920000DF0C3FB0BA80BF0E8FC1E4BA2
:1084500029681868043103F035FF01221B4B0CA872
:108460001A70002333700CF08BFF09A80BF0D7FCB7
:1084700008A80BF090FD15B0F0BD246814490EA8B3
:1084800001F0DCF9022220000EA90DF0A0FB0EA8DD
:108490000BF0C5FCEFE7C046FF2700206C2400204E
:1084A0000028002044800200E42100209C8002007B
:1084B000EC20002001280020F0200020A2800200F3
:1084C000A9800200B480020020250020022800209C
:1084D000B980020070B5114D280000F06BFA104C05
:1084E0001049220028000EF03BFF0F480BF052FA13
:1084F0000E4D0F49280001F0A1F90E4E2200310067
:1085000028000EF02DFF0C4D0C49280001F096F9C3
:108510003100280022000EF023FF70BDF42000205F
:10852000002000204185010001280020F0200020CB
:10853000C28002001F3E0200EC200020CB8002001F
:10854000CA23144A9B0010B5C2501C330400C01843
:108550000BF065FCD0239B00E0180BF060FC2000C2
:108560009130FF3001F088FD20006930FF3001F0CC
:1085700083FD2000F03002F0F7F82000D03002F048
:108580004DFC2000643008F019FE201DFFF784FE2A
:10859000200010BDA07A0200F0B5E84D9FB0280081
:1085A00000F0C0FA1C200EF0E6FEDD2120230400BE
:1085B00089001A00695805F05BFBE14B28201C601C
:1085C0000EF0D9FE1023FA21040000938900012245
:1085D000DC4B0BF0C2FB2100DB4802F0B3FB0028B0
:1085E00005D020000BF0CFFB20000EF0C0FED749D5
:1085F00006A801F027FAD64907A801F023FAD549C1
:1086000008A801F01FFAD44909A801F01BFAD348C1
:108610000BF0B0FE041E06D1D1480BF0ABFE0028D3
:10862000F5D0D04B1C70D04800F0BCFE0126CF4DD9
:10863000CF482E70FFF70AFECE4F041E1FD007A9A9
:1086400017A80BF0B5FC002238001300019200922D
:1086500017A902F015FA17A80BF09DFCC64B1B7862
:10866000002B3BD1BE480BF085FE002803D0C34B46
:108670001B78002B32D0642000F094FEEEE706A9B0
:1086800017A80BF095FC23002200380001940094F9
:1086900017A902F0F5F917A80BF07DFCB64B1B7873
:1086A000002B03D1642000F07DFEF7E709A917A88D
:1086B0000BF07EFC0022380013000192009217A9F3
:1086C00002F0DEF917A80BF066FCA4480BF052FE8E
:1086D000002803D1643000F065FEF6E70024A64BC5
:1086E00008A917A81C702C700BF062FCA14D230088
:1086F000220017A928000194009402F0C1F917A8DC
:108700000BF049FC984800F04DFE280001250CF0C4
:1087100030FA944B6D421B78A34200D185E090481B
:108720000BF028FE002800D03EE1914911A8FFF788
:1087300093FD159CA54241D0914B924A63439B18EF
:10874000914A93426FD891480CF0D0FD139B421E82
:108750000393129B8E490293119B009405930193FE
:1087600017A8149B0AF0B8FD17A90AA801F066F82B
:10877000884D0FA829000BF0A7FB03220FA90DA815
:1087800003F0BAF80FA80BF04AFB0DA80CF0F4FDAB
:10879000002818D00AA90FA80BF096FB0FA90DA866
:1087A0000CF0E2FD0FA80BF03AFB0DA803F010F956
:1087B0000DA80CF0E5FD0AA80BF031FB642000F0D9
:1087C000F1FD2500ABE729000CA80BF07DFB04228E
:1087D0000CA90FA803F090F80CA80BF020FB6E4931
:1087E0000BA801F02BF80BA90CA80BF06DFB0CA942
:1087F0000FA80CF0B9FD0CA80BF011FB0AA90CA8EE
:108800000BF062FB0CA90FA80CF0AEFD0CA80BF04E
:1088100006FB0FA803F0DCF80BA80BF000FB0FA879
:108820000CF0AEFDC4E72C00C8E74D480BF0A2FDEC
:10883000002800D0B8E04E4911A8FFF70DFD159CA7
:10884000A54245D0169B0593059A4D4B53434D4A7F
:108850009B184D4A934200D9A4E04C480CF046FDC9
:10886000139BC21E0393129B4C490293119B0094CD
:108870000593019317A8149B0AF02EFD17A90AA8C7
:1088800000F0DCFF434D0FA829000BF01DFB032275
:108890000FA90DA803F030F80FA80BF0C0FA0DA82F
:1088A0000CF06AFD002818D00AA90FA80BF00CFBE9
:1088B0000FA90DA80CF058FD0FA80BF0B0FA0DA8E9
:1088C00003F086F80DA80CF05BFD0AA80BF0A7FAE0
:1088D000642000F067FD2500A7E729000CA80BF035
:1088E000F3FA04220CA90FA803F006F80CA80BF069
:1088F00096FA2B490BA800F0A1FF0BA90CA80BF0CE
:10890000E3FA0CA90FA80CF02FFD0CA80BF087FAC6
:108910000AA90CA80BF0D8FA0CA90FA80CF024FD9A
:108920000CA80BF07CFA0FA803F052F80BA80BF080
:1089300076FA0FA80CF024FDC4E7C046F42000200E
:108940006C240020B1820100C4210020CD800200EF
:108950002781020083810200C98102005C2200207D
:108960008422002080200020B80B0000FF27002078
:1089700001280020E42100200228002000280020F7
:10898000EFEEEEEE8888880810111111D422002035
:1089900017820200F02000203C8202005782020071
:1089A000798202002C0093E7014800F0FBFC3EE6D0
:1089B000B80B00001423F0B5040093B00093192203
:1089C0001821043002F094FC2200250026006432B5
:1089D000B435132110001092B83608F0FBFB2800C4
:1089E0000CF02AFC00221E2130000CF0C7F82000F9
:1089F000D03002F033FA2200F03211920621464ABA
:108A0000119801F0D9FE20000027012369301A00D7
:108A100011210097FF3001F03BFB20009130012332
:108A200002221A210097FF3001F032FB2000B930FA
:108A30001A2301210222FF3002F0CEFA300001F0A9
:108A40002DF9E4225200A050300001F07BFBE62318
:108A50005B00E0500100E42220005200D130119B65
:108A6000A2580095FF3001F0C1FD2000E13029003F
:108A70001C22FF3002F0D6FD192320000F93013B8A
:108A80000E93013B0D93013B0C93013B0B93013B78
:108A90000A93013B0993013B0893013B0793013B78
:108AA0000693013B0593013B0493013B0393013B78
:108AB0000293013B0193F930013B08220093072107
:108AC000013BFF300CF07BF8CA239B002900E01823
:108AD00004F0D2FAD3239B00E0181D2102F054FBCE
:108AE000DD239B00E7501098032127700EF06DF9ED
:108AF00023002200200009499C33A0321C60116031
:108B00005760074A02215A618030012208F0E6FCD2
:108B1000200013B0F0BDC0461C7602004B3A0200A4
:108B2000353A02000278F0B50123170004008FB037
:108B30001F401A4200D081E00300D0331800039395
:108B400000F0E0FA00F0E0F928200EF014FC050037
:108B500010300BF0F3F96F4B18202B600EF00BFC6C
:108B600006006D4B0822390004600C300C930D9701
:108B70000EF055FC0CA90822301D0EF034FC674B9A
:108B80002900736112230398AE60EF60AB802F62FF
:108B90006F6202F0D7F8002805D028000BF0F3F838
:108BA00028000EF0E4FB012327002278B43713439A
:108BB00023705B4938000CF045FB002659490590AD
:108BC00038000CF03FFB35000690642000F0EAFB13
:108BD000049623006933FF33180007930BF0CAFB98
:108BE00000282DD1059B002B34D1069B002B31D1C1
:108BF000DD254D494D48AD0000F0CCFC6359002BFC
:108C00001CD100F0A1F801000BA800F017FE0CA881
:108C10000AF08EFFCA239B00E018069B0CAA0BA942
:108C20000093039B04F082FA0CA80BF0F8F80BA851
:108C30000BF0F5F8CC239B00E35863510FB0F0BD67
:108C400020009130FF300BF095FB0028CAD0049B28
:108C5000182BC7DC20006530FF2329B232B2FF3069
:108C600000F084FE322000F09DFB049B01350133AF
:108C7000EDB20493052D02D100250136F6B2049B16
:108C8000192B0AD0059B002BA3D03800244902F0F1
:108C90005DFC05980EF06BFB02E0059B002BF4D108
:108CA000069B002B02D018000EF061FB1E491F48E6
:108CB00000F070FCCA239B00E3180893DD239B009F
:108CC000E3580993002B1ED100F03EF801000BA8D9
:108CD00000F0B4FD0CA80AF02BFF01230CAA0BA98D
:108CE00008980093039B04F021FA0CA80BF097F866
:108CF0000BA80BF094F8CC239B00E3580993DD23D9
:108D0000099A9B00E2502100079A0898F03104F07C
:108D100005FC5EE7FD030000BD3A02007D3A02005B
:108D2000928202009D82020000200020001F00208D
:108D3000BFF34F8F024B034ADA60BFF34F8FFEE75A
:108D400000ED00E00400FA05F0B58BB003AF192286
:108D5000380015490EF047FB0023144D05266B71B2
:108D600080235B055B6E2C0000930123019331008F
:108D7000009809F0A9F80800019909F01FF80522E8
:108D8000009B56431B1A0093019B534301932B1BDB
:108D90005343FB181B5C013C6371054B9C42E6D1BD
:108DA00002480BB0F0BDC046E38202000328002059
:108DB000FE270020F0B595B01822002104000EA86F
:108DC0000EF02DFB13210EA80EF009F903210EA8B9
:108DD0000EF0B0F9464B1B68002B00D10133DBB21B
:108DE000009300210123434A09A808F0E7FCFA2375
:108DF0009B009C429B411C4072B63F4B64211E6805
:108E00003E4B20000593052509F062F86843503079
:108E100030180A210690200009F05AF80A2109F0BA
:108E20003DF9694350317118200007910A2109F07A
:108E300035F94D4350357619089680260024B60141
:108E4000009B002B52D004AD0027032C02D18026BA
:108E50000024B6016B682A4A02936300D3180022EB
:108E6000019258780299095C039119788C46102177
:108E7000604601410398014204D0012090400199CD
:108E80000143019101320633092AEAD1019B2A6884
:108E9000D9431C4B09011940029B934224D1312F25
:108EA00022DC002109A80EF0FEF9FA23139A0F998B
:108EB000DB001068014219D0013B002BF9D1FA23E5
:108EC000013401377600E4B25B009F42BDD1043526
:108ED00008ABAB42B8D1064B1B68002BB0D0009B4F
:108EE000013BDBB20093ABE73143DBE7FFF720FF49
:108EF00074240020F0FF00000420002032830200D0
:108F0000FC820200F01F0000F8B50023124C236021
:108F10000AF02FFE002808D0042120000AF025FEC8
:108F2000002801D00D4B2360F8BD0122A1270425A4
:108F30000B4B0C491A602268FF0048604E68002EF7
:108F4000FCD0DE591202013D3243002DF5D12260E2
:108F500001225A60E8E7C04670240020ED5EBC0B99
:108F600000D00040FCD00040F0B585B01F000AAB37
:108F70001B880600150002910393002F1BD02820A8
:108F80000EF0F9F96B4604001989039BAAB200930D
:108F90003B000AF0E2FE3368210030005B6898472E
:108FA000002806D020000AF0EEFE20000EF0DFF9C7
:108FB000024805B0F0BD0248FBE7C04616FCFFFFC3
:108FC00017FCFFFF0B4B70B51C68002C10D0656DB3
:108FD00000F0F0FBA36C002901D1834206D82000E9
:108FE0000AF0FAFD200004490AF0E4FD2C00ECE749
:108FF00070BDC0467C2400209C240020F0B593B0B6
:1090000007932A4B04AC1E68049005910692002E2B
:1090100049D0274B258867881C6800230293002CC1
:109020002DD0636D23480393A36C190C9AB20B00E7
:10903000854214D12048824211D1002901D0B94281
:109040000BD1029B002B08D120000AF0C5FD2000A7
:109050001A490AF0AFFD01230293039CDFE7002ABF
:1090600001D09542F9D1002901D0BB42F5D12000B1
:109070000AF0B2FD200011490AF09CFDEDE7104B0B
:10908000EB18012B0FD910233A002900009308A8F0
:109090000C4B0AF062FE336830009B6808A99847C1
:1090A00008A80AF070FE13B0F0BDC0467824002076
:1090B000A8240020FE030000FF0300009C240020E1
:1090C00002FCFFFFFD8F010010B572B60B4B1C6850
:1090D000002C08D020000AF07FFD0023E364084B39
:1090E0002000E36310BD62B65C200EF044F95C2200
:1090F000002104000EF093F9EFE7C046A024002001
:1091000000400020F7B51E4C0123227816001E40B7
:109110001A4233D11B4D2860FFF7D6FF1A4B1B496B
:1091200018600AF047FDFFF7CFFF194B1860194B85
:109130004363194B8363286800280FD0C023174F5F
:109140003200174900933B00FFF70EFFC023009346
:1091500032003B0013492868FFF706FF0C200EF091
:109160000AF90023838083710F4B03600F4B8360E8
:1091700000F038FB0123227813432370F7BDC0466B
:109180000928002078240020AC2400209C24002002
:10919000A4240020FC3F0020713C0200FD8F010050
:1091A000FF030000FE0300003C760200C58F0100B3
:1091B000024B1878012318407047C0460928002048
:1091C000F7B506000D0017000193002802D1002416
:1091D0002000FEBD0029FAD0FFF776FF041EF6D06E
:1091E000074B019A43630660064B45608760002A7F
:1091F00000D0054B20000549A3630AF0DBFCE7E73C
:10920000FC3F00204B3C0200593C02009C24002003
:1092100070B5074B04001D7801222800104015424C
:1092200004D0002320001A00FFF7CAFF70BDC0461B
:109230000928002070B5074B0E0011001A780500B0
:109240000123100018401A4203D032002800FFF713
:10925000B7FF70BD09280020024B186843425841EF
:109260007047C0469C2400200300002210B504492A
:1092700094006058002801D00132F9E7635010BD16
:1092800084240020002310B5044A99008C5884429D
:1092900001D00133F9E70020885010BD842400205C
:1092A00010B50024084BA200D058002802D0036853
:1092B0005B6898470134062CF4D1044B1B68002BE3
:1092C00000D120BF10BDC046842400209C24002073
:1092D0000122F8B52C4B1B7813421CD02B4D2C6867
:1092E000E36C134218D002273B43E364284B1E680B
:1092F0000423F26C30001343F364636BF3630AF0EE
:1093000082FC3000716C04F02AFF2868C36C3B4279
:1093100001D004F05EFFF8BD1E4F1F4E3A68306862
:10932000002A0AD128601B0712D52C60FFF7B8FF6E
:109330003B68002BFAD02B600AE0216DB94219D1AD
:10934000616D002900D1110029602A688242EAD0AB
:1093500029688C42DFD0336899420DD10F4B4B63A3
:109360000F4B8B6320000AF04EFC296820004B6CE9
:10937000626C06E02A60E8E79C42F3D1002210000C
:109380004B6C04F0ABFEC6E709280020AC2400209B
:10939000802400209C240020A4240020FC3F0020E6
:1093A000713C020070B5114B04001A7801231A4277
:1093B00002D10DF0B8FE70BD0D4A1568EA6C1A4274
:1093C00006D0FFF781FE0B4B1860002800D0050087
:1093D00000F0F0F92418AC6428000AF0FDFB280026
:1093E00005490AF0E7FBFFF773FFE4E709280020CF
:1093F000AC240020802400207C240020F0B51E4BEB
:109400001E4F1E683B6885B005000391002B31D0CC
:109410001B4B1A7801231A422CD0F26C1A420ED040
:10942000FFF752FE174B041E186008D00AF0D4FB59
:10943000200015490AF0BEFB2600FFF749FF039BF9
:1094400030001B042B43B3640AF0C6FB30000F4905
:109450000AF0B0FB0E4B0024EB18012B07D9C023F8
:10946000009329000B4B039A3868FFF77DFD20001D
:1094700005B0F0BD084CFAE7AC24002078240020A9
:1094800009280020802400209C240020A8240020FB
:1094900002FCFFFFFD8F010016FCFFFF10B5074B1C
:1094A0001B78DB0709D5064C20680AF095FB0549B7
:1094B00020680AF07FFBFFF70BFF10BD0928002092
:1094C000AC240020A024002010B5034B1B78DB0740
:1094D00001D5FFF7E3FF10BD09280020F7B505000F
:1094E0000C00002833D001261B4B1B78334230D0B0
:1094F0001A4F07233868C26C1100194000911A42B4
:1095000007D021002800164AFFF794FE0025280006
:10951000FEBD04F046FE3A680221D36C18000840F4
:1095200001900B4203D001318B43D364EEE7334308
:10953000D3642000A8473A68019DD36C1900B14359
:10954000D1645B07E3D52000FFF7BEFFDFE7054DE1
:10955000DDE7054DDBE7C04609280020AC240020EC
:10956000C994010017FCFFFF16FCFFFF020010B5B5
:10957000014B12CB12C210BDB0240020034B1A685D
:10958000034B1A607E225A607047C04604200020B8
:10959000B0240020F0B5124E03003278022A1BD00E
:1095A00081421BD90C1A072C18D90D00054303273B
:1095B000280038403D4211D172B6BA40094DA40886
:1095C0005351AA1851608022120614431C6033784C
:1095D0000133337062B6F0BD0348FCE70348FAE795
:1095E0000B280020B824002013FCFFFF17FCFFFF0E
:1095F00070B5134C05002378124E002B0CD1124984
:1096000012483370FFF7C6FF114B984202D11E205B
:10961000FFF7D0FB0123237000243378A34209DD38
:109620000C49E3002800C9180AF028FB002805D1DE
:109630000134F2E71420FFF7BDFB002070BDC046E7
:109640000A2800200B28002000380020D8280020FD
:1096500017FCFFFFB824002010B5002817D0002207
:109660000F4B19780F4B914215DD1C6884420FD2C5
:109670005C6884420CD9041F2368002B02DC1E2086
:10968000FFF798FB802322681B061343236010BD5D
:1096900001320833E7E71E20FFF78CFBF7E7C046EF
:1096A0000B280020B824002070B5051E14DD0B4ED9
:1096B0000B4C3368002B02D020680DF0E9FBFA2137
:1096C00020680024074B89008361C46269433560C8
:1096D0000DF0EFFB200070BD0348FCE7C82400201C
:1096E000F82400209197010017FCFFFFF8B5114FF7
:1096F00005003E68002E0AD130200DF03CFE04002B
:1097000007F0D0FD0C4BA6612360E6623C600B4E77
:109710003368002B09D110200DF02DFE04000DF050
:1097200014FC200034600DF0EAFB2800FFF7BCFFBA
:10973000F8BDC046F8240020487E0200F424002032
:10974000014B18687047C046C824002070B50D4C06
:109750002368002B03D00C4B1B68002B02D1062082
:10976000FFF7C4FF20680DF0E1FB02000749C317B3
:109770000D684E685219734120680A604B600DF005
:10978000DBFB70BDF4240020F8240020B020002072
:1097900010B5FFF7DBFF0024054BA200D0580028CE
:1097A00002D003681B68984701340A2CF4D110BD1D
:1097B000CC24002010B5FFF7C9FFFA22034B92001A
:1097C00018685968002308F0A9FC10BDB0200020DB
:1097D00010B5FFF7BBFF024B1868596810BDC046B3
:1097E000B02000200B4B10B51B680400002B03D0E9
:1097F000094B1B68002B02D10620FFF777FF0023DF
:10980000064A99008858002801D00133F9E78C50A6
:1098100010BDC046F4240020F8240020CC240020F1
:10982000002310B5044A99008C58844201D00133BA
:10983000F9E70020885010BDCC24002010B50400AA
:10984000002902D00B78002B03D1034B23602000AA
:1098500010BD0AF0EBFAFAE74C760200F8B5040006
:109860000E00150000290AD00B78002B07D0002A23
:1098700005D0080097B20DF01AFE874203D90B4BB2
:1098800023602000F8BD681DFFF7B2FE20600AF0DB
:1098900070FC20682A004780310004300DF0A3FDE1
:1098A00023685D1900232B71EBE7C0464C7602005C
:1098B000014B03607047C0464C76020070B50968E2
:1098C000160002228C5E0500A64206DB084B1868D3
:1098D00028600AF051FC280070BDA41B9C4200DDEA
:1098E0001C000431280022B28919FFF7B7FFF2E704
:1098F000FC24002010B50548054C20600AF03CFC13
:109900002000044A04490DF02BFD10BD4C760200E6
:10991000FC240020002000201F3E0200084B73B5ED
:109920001D680400002D0AD001002E6808220831AD
:1099300068460DF058FD0CCC28003168884773BD8F
:1099400000250020014B03607047C046547602009A
:1099500010B50400081E03D1034B2360200010BD86
:1099600021600AF009FCF9E75476020030B500687E
:109970004488A1420CDA8588AA4209DA002907DB6B
:10998000002A05DB6243401880188371002030BD37
:109990000048FCE717FCFFFFF0B507000E001D00B4
:1099A00085B0002921DD002A1FDD002B1DD00468B1
:1099B000638803938B4200DD0391A3880293934253
:1099C00000DD0292002306340193019B029A934228
:1099D0000ED029002000039A0DF005FD3B68AD195B
:1099E0005B88E418019B0133EEE7024805B0F0BD47
:1099F0000020FBE717FCFFFFF8B504000D00160080
:109A00001F00002901DB002A02DA0D4B2360F8BD9C
:109A1000100048430630FFF7EBFD20600AF0A9FB79
:109A200023685D809E80002F06D03B003200290015
:109A30002000FFF7B1FFEAE720000AF0D0FAE6E7DE
:109A400054760200F7B507000D1E03D1244B0360C6
:109A50003800FEBD00240800260021000194037890
:109A6000002B1AD03022524294469C446246092A66
:109A700011D90A2B0AD1019B361901330193B14246
:109A800000DA3100002426000130E8E7002CFBD08A
:109A900000240136F8E70124F6E70126019A380090
:109AA00012B209B27642FFF7A7FF31000A203B68E5
:109AB0009A1D2C78002CCBD02300303B092B08D8E2
:109AC000F343DB17334043431B19303B1E00013582
:109AD000EFE7002EFBDB16700E000132F7E7C04601
:109AE00054760200F0B5050087B004A816001C00EB
:109AF0000F00FFF73BFD2B685A88964235DA9B88AA
:109B00009C4232DA1F2F30D9059B01939F422CDCF7
:109B100005217943049BA0395B1801932300621D42
:109B20000392019A1278029200222C68B71860887A
:109B3000B8420DDDA1888B420ADAE41910271741DB
:109B40005843029924180F40781E87417F42A7711D
:109B50000132052AE9D1019A013301320192039AB7
:109B60009342DED1002007B0F0BD0148FBE7C046BC
:109B700017FCFFFFF7B5036806009F1D5B880D000B
:109B80005A1A0192002919DD0024994203DB0AF0D8
:109B900026FA002013E033689B889C42F9DA791991
:109BA0003800019A0DF01FFC019B2900F8180AF0FB
:109BB000F9F9336801345B88FF18ECE70048FEBD13
:109BC00017FCFFFF10B50548054C20600AF0D4FAD9
:109BD0002000044A04490DF0C3FB10BD5476020076
:109BE0000425002000200020973F020010B5054CFE
:109BF000012120000AF0B4FA2000034A03490DF0C5
:109C0000AFFB10BD08250020002000201F410200EE
:109C1000074A030010B50120934208D0834202D0C6
:109C20000020DB0703D41E20FFF7C4F8002010BD7E
:109C3000FFFF00000048704716FCFFFF10B5322000
:109C4000FFF7B8F8004810BD16FCFFFF8280142211
:109C5000002310B541620F4C0100083404600E244B
:109C60000281123A837182720363838636310A78E5
:109C7000C360A243036143618361C36103620A70ED
:109C8000021DD38701224287034AC2630200403289
:109C9000137010BD7476020001000100F0B5564E3D
:109CA0000500376897B0002F00D090E006AC0B237A
:109CB0001C222121200001F0C7F90B231D222221A3
:109CC0000AA801F0C1F90B231B2223210EA801F0E1
:109CD000BBF908200DF04FFB01223B00110004905E
:109CE0000BF0AEFF3A2128000BF03EFC00281CD000
:109CF000A38812AFBB80A379A268BB713F4B5C20E5
:109D000012930E23E3561492A289BB73BA810DF00D
:109D100032FB04230193363300933A002900049B5D
:109D2000040002F0F9FC346051E0322128000BF00D
:109D300049FC00281BD0A38812AFBB80A379A2687E
:109D4000BB712E4B5C2012930E23E3561492A28912
:109D5000BB73BA810DF00FFB042301932E330093E4
:109D60003A002900049B040002F06EFEDBE73C2170
:109D700028000BF0E2FB002834D0362202AB9B8E89
:109D800012AFBB8002AB9B181B780832BB711B4B18
:109D9000A420129302AB9B18109A1B781492059280
:109DA00002AA928F5BB2BA81BB730DF0E4FA05236D
:109DB00004000293013B0193383300933A00049B63
:109DC000290002F0C9FB0E4B346044341C600C4B7C
:109DD000094C1868002802D021680AF039FB206875
:109DE00017B0F0BD44200DF0C6FA04220499040017
:109DF000FFF72CFF97E7C0460C2500206476020091
:109E000010250020F0B56349C56885B08D4258DA49
:109E1000030036331C7802222300134014425BD126
:109E2000026901928A4265DA0200363212785207DC
:109E30006AD4426902920200029C40328C4270DA7B
:109E4000010036310978090775D4002B7ED11378CB
:109E50009C46002B16D00100061DF38F36310133CE
:109E60009BB2F3870391097801270C003C403942EB
:109E700000D188E01D2B05D9039BB943197000233D
:109E8000F38713700AF0C4F9434A0723904277D945
:109E90004249043B8D4273DBC82201339200954254
:109EA0006EDC0198023B88426ADB013B904267DC32
:109EB00002980433884263DB0023904260DD06335E
:109EC0005EE0C822002352009542A9DD030036332C
:109ED0001A7800239207A3D4012306001F00363608
:109EE00032785408A7433C0002279C40BA432243DF
:109EF000327095E7C822019C5200944299DD02001D
:109F000036321278520794D4012306001C003636EC
:109F100032789708BC43A7000424A2433A43327026
:109F200087E7C821029C49008C428EDD0100363152
:109F30000978090789D40100012636310B78DF083A
:109F4000BE430827F600BB4333430B701378032B43
:109F500000D97CE70133DBB21370012B03D1002160
:109F6000031DD98773E7042B00D070E70200363257
:109F70001178033B0B43137000230430C3870B336A
:109F8000180005B0F0BD092B00D87BE76346F487C5
:109F9000013B76E770FEFFFFFF700200E0FCFFFF71
:109FA000F0B5C369C1681A68451D0400EB7F89B02C
:109FB000114225D0002B57D10123A2791A4237D064
:109FC000002602226846A188A67109F0C1FFA31DE0
:109FD000DD7F012D2CD1FFF7EDFB3300226A801AC3
:109FE00099410F000600A1889F4203D1FA239B00EC
:109FF0009E423BD30123042204A809F0A9FF17E0E5
:10A000000B2B01D80133EB77EB7F082B0DD9012205
:10A01000A37913420CD11343A188A37104A81300A0
:10A0200009F096FFFFF7C6FB2062EB7F012BC3D937
:10A030000322A3791340012B14D1FFF7BBFB0023AC
:10A04000226A801A9941994202D10A4B984209D951
:10A050000223A279A1881343A3710522012304A836
:10A0600009F076FF09B0F0BD013BCCE72B000322DD
:10A07000C2E7C046DB05000010B50400034B0833FF
:10A080000360FFF7CDFB200010BDC046A87602009C
:10A09000F0B5060000250F00040085B002930AAB5E
:10A0A0001B78083603930F4B290008330360019295
:10A0B00085808571182230000DF0B1F9390030002B
:10A0C000039A0CF091FF019B029AA380A31DE771F4
:10A0D000DA77631D25622000DD77FFF783FB200020
:10A0E00005B0F0BDA87602000048704716FCFFFFDF
:10A0F00010B53320FEF75EFE004810BD16FCFFFFD2
:10A10000002310B50400838083710D48216408305A
:10A1100020608020C000A061E0612062110020006A
:10A12000E360236163616362A362E3622363636349
:10A13000A363E36363640AF063F9200010BDC046C3
:10A14000C0760200F0B5544E0500376897B0002F76
:10A150003DD10B231C22212106A80AAC00F074FF7C
:10A160000B231D222221200000F06EFF0B231B2257
:10A1700023210EA800F068FF08200DF0FCF8012252
:10A180003B00110004900BF05BFD1D2128000BF03B
:10A1900002FA002824D0A38812AFBB80A379A2685A
:10A1A000BB713E4B602012930E23E3561492A2899A
:10A1B000BB73BA810DF0DFF80523019318330093C8
:10A1C0003A002900049B040002F06EFB3460344B1B
:10A1D000314A1B681068002B00D0436417B0F0BDF3
:10A1E0003C2128000BF005FA00281BD0A38812AFF1
:10A1F000BB80A379A268BB71284B602012930E2309
:10A20000E3561492A289BB73BA810DF0B4F805230A
:10A210000193373300933A002900049B040002F0B5
:10A22000B5FCD3E73C2128000BF087F9002829D0A2
:10A23000362202AB9B8E12AFBB8002AB9B181B7801
:10A240000832BB71154BA420129302AB9B18109AD5
:10A250001B781492059202AA928F5BB2BA81BB73EB
:10A260000DF089F8052304000293013B0193383374
:10A2700000933A00049B290002F06EF9084B1C6021
:10A280004434A3E748200DF076F805220499040031
:10A29000FFF736FF9AE7C0461025002064760200DB
:10A2A0000C25002082B0F0B50400EDB0642073935B
:10A2B00072920CF038FF052210A8110009F098FEE8
:10A2C000984911A8FFF7BEFB1925002221AB013DDB
:10A2D0001A605A609A600C33002DF8D115222900BB
:10A2E00014A813950DF09BF8A0680AF040FCFF211C
:10A2F0000A90A06800F08CFC8B4FA06800F054FB23
:10A30000049507950995884B9F4203D0874B9F4240
:10A3100000DBFDE0A0680AF02CFCA56884491AA8BF
:10A32000FFF78CFA78221AA9280000F0DDFB1AA8A2
:10A3300009F075FD00237C4F04930326099B606898
:10A3400001333340099309F0FBFF0500606809F011
:10A35000FEFF0022774B05929D420FDB01320592F2
:10A360002A00C8320ADBAA220421920005919542F4
:10A3700004DC0596C82D01DC02220592002206921B
:10A38000984210DB012306930300C8330BDBAA239A
:10A3900004329B000692984205DC03230693C828EA
:10A3A00001DC013B069310A809F019FE624B002561
:10A3B0001E00089313ABEB5C012B05D1727831784A
:10A3C000FE3310A8FFF7D2FA01350236192DF1D16C
:10A3D0006B4618229A5E6B4610A81421595E099BA1
:10A3E000FFF7C4FA002F02DB049B0F2B07D90023D1
:10A3F000A0681A007430009310A909F006FE002628
:10A40000089B059A1B78934228D1089B069A5B7893
:10A41000934223D12C2308AAD218935D012B1DD07F
:10A420000C2207990CAD4A43280021680B920022A8
:10A430000AF010F821A98C460B9A6244130007CD4C
:10A4400007C32C2308AAD31801229A55079B9B18EF
:10A45000DBB20793049B9B18DBB20493089B013685
:10A4600002330893192ECBD164200CF05CFE079BBD
:10A47000643F3FB2182B00D845E71A0021A91AA85B
:10A480000AF0F7F96A461DAB23CB23C21B681360A1
:10A490001A991B9A1C9B206809F0C4FFE568002DDF
:10A4A0000CD0264912A8FFF7C9F91C2328001AAAC4
:10A4B00012A90AF0FCFE12A809F0B1FCA0680AF08B
:10A4C00058FB11A912A8A56809F072FD00221C4BC7
:10A4D000009212A901932800130000F0A7FA12A815
:10A4E00009F059FDFA2080000CF01DFEA0680AF06A
:10A4F00040FB0A99A06800F08BFB11A809F04BFD06
:10A5000010A809F048FD6DB0F0BC08BC02B01847B7
:10A51000002F03D0049B0F2B00D00EE7A06800F0A3
:10A5200043FA0AE7128502008C3C0000D18AFFFF43
:10A530005785020058FDFFFF778502006C850200F9
:10A54000DC050000F0B587B001930EAB1B88060058
:10A5500003930D9B0D000093019B0C9F0292002B17
:10A560003CD0002F02D1009BDB0737D528200CF010
:10A5700002FF0400103009F0E1FC029B1820258046
:10A5800063800CF0F8FE0500009B08220593019BF8
:10A59000002103600C3004970CF041FF082204A94D
:10A5A000281D0CF020FF0E4B02226B610023039943
:10A5B000E3602362636233680A43300021005B6812
:10A5C000A560A2809847002806D0200009F0DBFB98
:10A5D00020000CF0CCFE034807B0F0BD0248FBE7BA
:10A5E0009544020016FCFFFF17FCFFFF70B58CB00E
:10A5F0008360109B01604260C3600400184918002A
:10A600000AF020FE051E14D001001C22103105A8FE
:10A610000CF0E9FE6A4608AB43CB43C21B681360EB
:10A6200020680599069A079B09F0FCFE28000CF0AB
:10A630009EFE0C4B186800280ED00B4A05AB059205
:10A6400000220692C03202926A4622CB22C2230026
:10A6500003220521FFF776FF20000CB070BDC04635
:10A660006C85020000250020A5A20100F0B50400C1
:10A6700085B0637A9C46002B04D120000AF017F9BC
:10A6800005B0F0BDA37A266F01931023019AF3560B
:10A6900000259B1801229A402900F3680392029337
:10A6A000029BAB4231DDB068019B6843C0187369FF
:10A6B0004000E77A1A181B5C5078E279012F14D118
:10A6C000571E3F1A18003B004243606F5200821829
:10A6D000D2189379634500DD6346627B1A4202D04B
:10A6E0000123AB4019430135DAE7022F07D0032FCE
:10A6F000EAD1277A013FFF1A03003800E4E7571E2A
:10A70000FB1A277A013F381ADEE71123C943F356B3
:10A71000606C994023691940039B19430CF0C3FDF9
:10A72000A27B072AACD8637B0C495B006373531C84
:10A73000DBB290004158A373022A03D808000CF042
:10A74000E7FC96E7064B2000236300236363054B79
:10A75000E462236414300CF0ACFB91E7EC76020069
:10A760006DA601009948020070B50400104B250049
:10A7700008330360FFF754F82000743009F00BFC35
:10A780002000603009F007FC2000583009F047FB3A
:10A790002000503009F043FB064B1435280063615C
:10A7A0000CF076FB280006F093FD200070BDC0463B
:10A7B0000C770200487E0200F8B500250400324BF9
:10A7C0008580083303608571143016000F0006F091
:10A7D00069FD20002D4BE562636125645030FFF771
:10A7E00067F820005830FFF763F820006030FFF76B
:10A7F000A9F820000423F25E33682667590009B2E5
:10A80000743009F0F5FB3368226FE3717368012639
:10A81000237210236581A7802561D356916859184A
:10A82000994204DD3000984001330543F8E71123D5
:10A830000120D356D1685918994206DD02009A408A
:10A840002669013332432261F6E714200CF093FDB0
:10A85000226900212A430123060006F0AFFFFF23EF
:10A86000220063720133A381002348326664A3731C
:10A8700020001370A366FEF7B5FF0123A279200024
:10A880001343A371F8BDC0460C7702005C7E020042
:10A89000F0B5437A040085B0002B04D120000AF003
:10A8A00006F805B0F0BD0122837A11009C46102302
:10A8B000066F0025F35603926344994002912900E4
:10A8C000F3680193019BAB422CDDB0687369684368
:10A8D00060444000E77A1A181B5C5078E279012F37
:10A8E00010D1571E3F1A18003B004243606F5200C0
:10A8F0008218D2189379002B02D0039BAB401943E6
:10A900000135DFE7022F07D0032FEED1277A013F71
:10A91000FF1A03003800E8E7571EFB1A277A013FA9
:10A92000381AE2E71123C943F356606C9940236952
:10A930001940029B19430CF0B6FC667AB31EDBB2D9
:10A94000FC2B14D8FEF7FCFE0B4B05002363002301
:10A950000A4863630A4BFF217043E462236407F0F3
:10A96000B7FA29004143200014300CF0A2FA637AB0
:10A97000012B00D995E791E7AF480200B60300002C
:10A98000994802001FB5012381881A00684609F022
:10A99000DFFA012368461A00024909F0D9FA05B026
:10A9A00000BDC046FE0300001FB5030048331A78FF
:10A9B0000400002A0DD000221A70012381881A0099
:10A9C000684609F0C5FA012368461A00034909F0F0
:10A9D000BFFA2000743009F002FB1FBDFF03000026
:10A9E00010B548300378002B06D00378012B03D034
:10A9F0000121024809F020F910BDC046FF03000004
:10AA000010B501210400062009F016F9064B984202
:10AA100008D148342378002B04D02378012B01D0AF
:10AA200020BFF7E710BDC04616FCFFFF73B5079CBB
:10AA30000500002C1CDB060048363078002802D0C8
:10AA40003078012816D106981BB2C0B200902800B9
:10AA500012B2743009F0D9FA002C07D02B004A3317
:10AA60001C80002407234C352C803370200076BDD9
:10AA7000014CFBE7014CF9E717FCFFFF12FCFFFF5D
:10AA8000F0B587B00D9C05000E0017000393002C55
:10AA900021DBFFF7A5FF2B0048331B78DAB20292C7
:10AAA000002B1AD1310005A809F082FA0C9B3A005C
:10AAB00000932800039B019405A9FFF7B7FF05A8A1
:10AAC00009F069FA002C03D02800FFF799FF029CD7
:10AAD000200007B0F0BD024CFAE7024CF8E7C04690
:10AAE00017FCFFFF11FCFFFFF8B50400171E1DDD6A
:10AAF000060048363378002B02D03378012B17D16B
:10AB00002200E3795632013B137023000025200018
:10AB100054331D80503009F0DFF923004A331F8081
:10AB2000022328004C3425803370F8BD0148FCE72F
:10AB30000148FAE717FCFFFF12FCFFFFF8B504001D
:10AB4000171E2DDD060048363278002A02D03278F2
:10AB5000012A27D15D42069BFF331FD16B1D2200C6
:10AB60001BB2643213802300200066331D706030F6
:10AB700009F026FA230000226C331A70954200D0A7
:10AB80003D0023004A331D80079B00205A1E93413D
:10AB9000013F4C34053327803370F8BD069BDEE758
:10ABA0000148FAE70148F8E717FCFFFF12FCFFFF36
:10ABB000F0B504000F0016001D0087B0002A1FDD4D
:10ABC000FFF70EFF230048331B78DAB20392002B05
:10ABD00018D1390005A809F0EBF90D9B320001935B
:10ABE0000C9B05A9009320002B00FFF7A7FF05A8E9
:10ABF00009F0D1F92000FFF703FF039807B0F0BD7B
:10AC00000148FBE70148F9E717FCFFFF11FCFFFFD4
:10AC1000FF2902D84172002070470148FCE7C04676
:10AC200017FCFFFF13B5040004A800780090200073
:10AC30000CF0A3F8002801D1207516BD0048FCE7F0
:10AC40000EFCFFFF13B5040004A80078009020005C
:10AC50000CF07BF8002801D1207516BD0048FCE7F8
:10AC60000EFCFFFF7FB50D0011000F226A440400A7
:10AC70001E1E117015D0089B002B12DD0123290028
:10AC80000093FFF7DFFF002808D100903200290071
:10AC90002000089BFFF7C6FF002800D0024804B040
:10ACA00070BD0248FBE7C0460EFCFFFF17FCFFFF2C
:10ACB000F7B506000D1E3ED000230227046901935C
:10ACC000002C34D0AA88A38853403B422DD13A426D
:10ACD00022D1A368AA68934227D12B88002B02D0E7
:10ACE00022889A4221D16B88002B02D062889A4236
:10ACF0001BD1EB68E268934201D0002B15D1736839
:10AD0000002B01D020009847A2880C4B1343A3804E
:10AD1000019B0133019308E0A968A0680AF075FF60
:10AD20000028DAD1AB883B42D3D0646AC8E7019BE4
:10AD30002000002B00DC0248FEBDC0460080FFFF63
:10AD400017FCFFFFF0B506000D0085B000295DD0AF
:10AD500001270469002C27D00221AA8800230A4277
:10AD600002D0A3885B083B40226829688A4215D13B
:10AD7000A068A968002B0FD00AF047FF00280DD06B
:10AD8000EB68E268934209D10421625EA388002A3D
:10AD900006DB1F4805B0F0BD8842F1D0646AD9E7F0
:10ADA0005B045B0CA380F4E730692A880100031E72
:10ADB00007D1356101236846164909F0C9F800201A
:10ADC000E8E71C88944206D25C6A1900002C0DD07A
:10ADD0002300F6E723001C88944207D15F886C8823
:10ADE000A74203D85C6A1900002CF3D1884209D12C
:10ADF0000B889A4204D305D148886B88984201D9C0
:10AE00006962D6E74B6A6B624D62D3E70248C1E7DD
:10AE100016FCFFFFFD03000017FCFFFF064B10B5FB
:10AE20001A00040008322C33026083600830FEF7F9
:10AE300029FA200010BDC0462477020008B4024B56
:10AE40009C46083808BC60471DAE010008B4024BA0
:10AE50009C46083808BC6047E54C02000C4A0023B9
:10AE600011002C32083110B54360838183738260F6
:10AE7000036143618361C383016004000830FEF70E
:10AE8000F3F9044B1A68002A00D11C60200010BDA1
:10AE90002477020000250020F7B50D000126046983
:10AEA0000192002C37D023882A889A4201D0002BA7
:10AEB00024D163886A889A4201D0002B1ED1FEF704
:10AEC00077F90123002806D0C022A3881340C03B95
:10AED0005A425341DBB2019A93421AD10422A35E33
:10AEE000A788002B15DB10222900A0180CF07BFA94
:10AEF00040231F4204D0200009F0FDFE646AD0E721
:10AF0000FEF756F90028F6D021000448FEF7E6FACD
:10AF1000F4E70026F2E73000FEBDC046F74C020021
:10AF200008B4024B9C46083808BC6047814E0200BA
:10AF3000F0B587B001930EAB1B88060003930D9B01
:10AF40000D000093019B0C9F0292002B3CD0002F20
:10AF500002D1009BDB0737D528200CF00CFA040047
:10AF6000103008F0EBFF029B1820258063800CF066
:10AF700002FA0500009B08220593019B0021036053
:10AF80000C3004970CF04BFA082204A9281D0CF091
:10AF90002AFA0E4B02226B6100230399E3602362BD
:10AFA000636233680A43300021005B68A560A280B9
:10AFB0009847002806D0200008F0E5FE20000CF09D
:10AFC000D6F9034807B0F0BD0248FBE7BB4E0200CC
:10AFD00016FCFFFF17FCFFFFF0B51600002583806D
:10AFE000164A174B04008571026001814681057382
:10AFF00018688C4689B0A8421DD0124A0595049263
:10B00000C02202926A4604AB82CB82C223002A008D
:10B010006146FFF78DFFC022094B0A49186802926A
:10B020006A46069106AB079582CB82C223002A00AE
:10B030003100FFF77DFF200009B0F0BD6877020006
:10B0400000250020E54F020030B5002403730123E2
:10B05000034D05608471818082734373846030BDC9
:10B060006476020070B583790400DB0704D580683C
:10B07000002801D00CF07BF9A3799B0704D5A068C8
:10B08000002801D00CF073F9A3795B0709D5A02340
:10B090000021154AA068DB00D150884201D00CF095
:10B0A00066F9A3791B0708D5A568002D05D02800EF
:10B0B0000AF01CFE28000CF05AF9A379DB0605D52E
:10B0C000A068002802D00368DB6898476023A27953
:10B0D0001A4205D0A068002802D003685B68984730
:10B0E0000023A360A37170BD00700040F7B5012676
:10B0F000037B040033422CD0827961231100194074
:10B1000001911A4216D1FFF7ADFF18200CF033F968
:10B110000E230500E356677B1822019900930CF07B
:10B120007EF93A00280000990BF05EFFA379A56034
:10B130003343A3716023A279A0681A4202D00BF0B6
:10B140003DFEFEBD436940681B681840431E9841A0
:10B15000F7E70148F5E7C04616FCFFFF012210B5EE
:10B1600083794173134204D080680BF0E3FF002021
:10B1700010BD6022134203D080680BF026FEF6E774
:10B180000048F5E716FCFFFF70B5040000250C4BE6
:10B190000E0008338580857103602100183009F0A6
:10B1A000D2FF20002100203009F0F0FF054B2000E5
:10B1B000A680E5802572E560256165611C6070BD33
:10B1C00078770200142500208379DB0702D5C1605F
:10B1D000002070470048FCE716FCFFFF8379DB077F
:10B1E00001D5C06870470148FCE7C04616FCFFFF68
:10B1F00070B545690400002D22D0037A032B21D8B5
:10B20000FFF7ECFFA8622C200CF0B5F82C220021EF
:10B2100005000CF004F9002263695A622369934225
:10B2200007D1636923610020237A656101332372AA
:10B2300070BD1A005B6A002BFBD163695362F2E7B1
:10B240000148F5E70148F3E717FCFFFF13FCFFFF98
:10B25000144B70B55A68144C002A03D000225A606F
:10B260000132A2601A69002A17D0002119618023D7
:10B27000DB000E4DE3582868012B0FD1A923DB001A
:10B28000E1584942FFF7A0FF2868FFF7B1FF2B689C
:10B290005A69074BE2500123A36070BDFFF794FF8A
:10B2A000F9E7C046FC1000400010004014250020C3
:10B2B0000405000003000069002809D00221054AA6
:10B2C000D167426A1A611A7A013A1A72024B1960FE
:10B2D0007047C04604E100E000E100E010B500293D
:10B2E00003DB024B19600BF0B5FD10BD18250020E3
:10B2F00070B504001D0004AB1E7805F08FFF200020
:10B300000E4B40302360FEF7D3FA230022000135B4
:10B310004C331D700023E1215832013616700A3A71
:10B32000A3646365138053809381D381013B200024
:10B3300063644902FFF7D2FF200070BD147602005B
:10B34000F7B580277F053E697C690822113C74436C
:10B350000500210068460CF046F8104B009A9A420E
:10B3600019D00093002301937969280013397143A0
:10B3700009F023FF019A2800009909F036FF210007
:10B38000280009F01AFF7969220013392800714357
:10B39000B30809F01CFF0198FEBDC046FECA0000BC
:10B3A000F0B50D00ABB000210D920700302212A8BD
:10B3B0001E000CF034F828000CF079F8431C0C93B4
:10B3C000102B00D9B8E0202E00D9B5E029003800B4
:10B3D00009F038FF0B90002854D129000C9A12A8CC
:10B3E0000CF001F832000D9916A80BF0FCFF802339
:10B3F0005B051A695D690B92113D6A4338005E690D
:10B400000D92FFF79DFF0D9B3022083300210400B1
:10B410001EA80F930CF003F831000B9B133959430E
:10B42000380009F0CAFE00230F9E0C930E930C9B6C
:10B43000A34246DA310030221EA80BF0D4FF12A935
:10B440001EA80CF022F800282BD13D49380022001C
:10B450001091119409F0C9FE6A46099615AB23CBE9
:10B4600023C223CB23C223CB23C23800149B1299BF
:10B47000139A09F0C8FE01230E930C9B303601335A
:10B480000C93D4E70B9832000D9910300BF09DFF10
:10B4900004000B980BF06BFF002C9ED120002BB00A
:10B4A000F0BD6A46099621AB23CB23C223CB23C22E
:10B4B00023CB23C238001E991F9A209B09F0A3FEBC
:10B4C000DBE7E6433021F61726404E430F9B9E19DB
:10B4D0000E9B002B1CD10B9B981E06F06FFCA0420C
:10B4E0002CD017490134380022001091119409F032
:10B4F0007CFE6A46099615AB23CB23C223CB23C21D
:10B5000023CB23C238001299139A149B09F07BFEB7
:10B5100038000D9909F051FE80235B0559690C2311
:10B520000B9A133963434A433800110002330D9AD2
:10B5300009F04DFE0024B1E7024CAFE7024CADE745
:10B54000FECA000017FCFFFF13FCFFFF8023F0B5CD
:10B550005B051A6995B002925A6905910299113AF0
:10B5600051435C69029B133C05005C430391FFF768
:10B57000E7FE061E3AD030220021083408A8039FB7
:10B580000BF04DFF2100280009F017FE00230837BB
:10B5900001930493019BB34220DA3900302208A8BA
:10B5A0000BF021FF059908A80BF06FFF00280DD1C3
:10B5B0001A49721E28000691079209F016FE01230F
:10B5C0000493019B303701330193E3E722000C23FE
:10B5D0003900280009F0FBFD3034F2E7049B002B12
:10B5E00006D1320028000D4909F0FFFD0C4812E099
:10B5F0002800039909F0E1FD80235B0559690C23BC
:10B60000029A13394A43734311002800039A023304
:10B6100009F0DDFD002015B0F0BDC046FECA0000F7
:10B620000CFCFFFF70B50400A280FA220023080082
:10B630000C49920008312160A3710B496061E260FE
:10B64000A360638209F0FEFD051E09D00100200001
:10B650000222103112300BF0C6FE28000BF087FEDC
:10B66000200070BD90770200A985020030B5022548
:10B670008379040087B02B4204D1FDF7F5FDA3794F
:10B680001D43A571200009F023FE00281CD06B4645
:10B69000DD1C280009F013FE2B78002B17D001A821
:10B6A00009F00BFE0321019AD3170B409B189B1046
:10B6B0002382FEF77FF8E368A18818180123A060B1
:10B6C0001A0002A808F044FC002007B030BD012297
:10B6D000064B1A60064A51680029FCD000215160CF
:10B6E000044A1268019201225A60DBE700C0004060
:10B6F000FCC0004008C50040022802D10122014BD5
:10B700001A7070470C28002070B5064D04002B7885
:10B71000002B04D1044802F025FF01232B702000E8
:10B7200070BDC0460D280020F9B6010070B50C00B0
:10B7300008F01FFA002810D00023144DA40A2B7023
:10B74000200009F0E3FD002803D00A200BF0EBFCF9
:10B75000F6E72B78002BFCD070BD02210C4B0D4A74
:10B7600099508021C90008005D58002DFCD0A1210E
:10B77000C9005C5019580029FCD000219950802143
:10B78000C9005A58002AFCD0E6E7C0460C28002021
:10B7900000E0014004050000F8B50C0015001E0093
:10B7A00008F0E7F9002811D00023174F3B70320052
:10B7B0002900200009F0A8FD002803D00A200BF082
:10B7C000B2FCF4E73B78002BFCD0F8BD01220F4916
:10B7D0000F488C4642508022D2008358002BFCD068
:10B7E00080270023FF009E4207DD9A00A958A15040
:10B7F000C259002AFCD00133F5E70023624683508A
:10B80000C359002BFCD0E0E70C2800200405000001
:10B8100000E00140F0B589B00E9D06000F000492D3
:10B82000002D04D1802252055569133DAD02AA05B1
:10B83000910D0591002A58D1BA05920D0192D218A6
:10B84000BC0A029230003A000499A40209F060FD9B
:10B85000002832D1FF233900032225009B00194024
:10B86000029B04339343039300230793039B8B4270
:10B870003EDD032201980A40079BD200814232DB61
:10B88000029888422FDD0498019FC01B405C9040C5
:10B890000343079303234F1C3B40059303231F429D
:10B8A00009D189108900023B3000611807AAFFF70F
:10B8B00073FF059B07933900D8E7002D15D02900A9
:10B8C0003000FFF733FF802322005B0029003000A7
:10B8D000FFF762FF21003000FFF728FF8023DB0025
:10B8E00005990393C0E7685CD1E7024809B0F0BD51
:10B8F0000020FBE717FCFFFFF8B50E00041D050054
:10B9000020001700FDF7D4FF2000310008F0E4FA12
:10B910000A4B1C68002C07D11C200BF02CFD0022C8
:10B920001100040000F0A2F931683A00200004314F
:10B9300000F038FC28602800F8BDC0462025002013
:10B9400010B50C0001681300002905DB0348220034
:10B95000006800F091FC10BD0148FCE720250020A4
:10B9600016FCFFFF10B50C0001681300002909DB6D
:10B97000002A09DB002C07D004482200006800F0F0
:10B98000ABFB10BD0248FCE70248FAE72025002087
:10B9900016FCFFFF17FCFFFF70B50D0001680400E7
:10B9A000160000290DDB084802230022006800F081
:10B9B00067FB002804DB320029002000FFF7C0FFEE
:10B9C00070BD0248FCE7C0462025002016FCFFFFA2
:10B9D000016810B50400002908DB054B186809F060
:10B9E00076FD002801DB034B236010BD0248FCE715
:10B9F0002025002013FCFFFF16FCFFFFF0B5C468F4
:10BA00000500408AAF6800020019800A8002001B0E
:10BA1000000A83B2180085B039000430029306F0A2
:10BA20003DFB002689B2029B994223D0081D83B2B8
:10BA3000002203930B0001925A00125B9446002AE5
:10BA40000DD0154A94450CD0019B002B02D0002E3E
:10BA500000D10E00390006F021FB89B2E3E7012294
:10BA600001920133039A9BB29A42E5D1698209029D
:10BA7000641807E0281D002E07D03602A419210003
:10BA8000FFF754FE200005B0F0BD044C2168FFF71D
:10BA90004DFE2468F6E7C046FFFF00001C2500208D
:10BAA00070B58AB06A4604000026038AD381238ACF
:10BAB000E168251DB3420CD97300C9180E2200237A
:10BAC000280000936A4402330136FFF7A3FEB6B2A2
:10BAD000EDE76846124A0026C2810E225B006A44E6
:10BAE000C918280002230096FFF794FE0D4904A808
:10BAF0000BF0D5FC6B46218A6A4619848023DB0152
:10BB00005384A36809020993E36828005918616106
:10BB10001823009604AAFFF77DFE30000AB070BD1E
:10BB2000FFEFFFFFB1850200F7B5040008000E002B
:10BB300015000BF0BCFC3018B04204D303782F2B57
:10BB400001D00138F8E7431C0193002D00D165694D
:10BB50002E8AE7683502ED192C0023006A1CFF329B
:10BB60001833934207D97600F65B0B4B9E420FD0F9
:10BB700035027D192C008022638AD201134205D040
:10BB8000200001990BF081FC002802D01834E4E772
:10BB900000242000FEBDC046FFEF0000002270B56B
:10BBA000C668050033880F48934207DD5100715A7B
:10BBB000814214D8994212D10132F5E71B02F618DE
:10BBC000300009490BF061FC041E08D1736928009C
:10BBD0006E61AB6009F0DDFB2882200070BD034C74
:10BBE000FBE7C046FEEF0000B18502000CFCFFFF42
:10BBF00070B50500006814000300012213401042D4
:10BC00002AD1002C2ADB6B826B61AB61002907D142
:10BC100013498B0504D08023890A8902DB00C918E7
:10BC2000002C06D180235B055C69133CA402641AD6
:10BC3000A40A2800E960FFF7B1FF002808D0A4009B
:10BC40002800AC6009F0A5FB28822800FFF728FF38
:10BC5000012300202B6070BD0248FCE70248FAE790
:10BC6000CC89020016FCFFFF17FCFFFF70B5040033
:10BC700004300D001600FFF747FD0023320023605B
:10BC800029002000FFF7B4FF034B1A68002A00D1F7
:10BC90001C60200070BDC04620250020F0B50400C7
:10BCA0008BB00992C2680B02D3189B0A9B020493C3
:10BCB0000591FFF7A3FE049BE26803909B1A1B0A01
:10BCC0009FB23B1D9BB208930290E6687B009B5B92
:10BCD000324A013B9BB293421ED83B02F618059BA9
:10BCE0003500BB4236D1099B022B33D13300F033F0
:10BCF00006938022029BD201991B6B8A691813421A
:10BD000006D000232A000093201D1833FFF782FD80
:10BD1000069B1835AB42ECD1029B01370133FF3350
:10BD20000293089BBFB29F42CFD1043420000499F4
:10BD3000FFF7FCFC00258023039A0499DB00200018
:10BD40000095FFF767FD20000399FFF7EFFC28003F
:10BD50000BB0F0BD231D07936369B34214D9731C64
:10BD6000FF330693029B991B2B886918002B06D082
:10BD700000232A00009307980233FFF74BFD069B30
:10BD80000235AB42EED1C7E7002300930133320006
:10BD90000299FF33201DFFF73DFDBDE7FDFF0000C9
:10BDA00070B50400468AA168701C06F077F900257A
:10BDB0000C4A89B28E420ED0E0684B001B5A934267
:10BDC00003D10D006182280070BD002B00D10D0051
:10BDD000013189B2EEE7002DF5D0200009F022FBF9
:10BDE0006582F0E7FFFF0000F7B505000091088AC3
:10BDF000EB680102C9180A0000244F1CFF37BC463B
:10BE000017001837674507D94000C05A1E4A9042AC
:10BE10001DD0010259180A00568A01961227D65FD2
:10BE2000002E12DB8026019FF601374202D1002C42
:10BE300000D114001832E0E7E11A090A02222800B2
:10BE400089B2FFF72BFF2000FEBD1400FBE7002C9A
:10BE5000F2D12800FFF7A4FF071EF4D0009B1C8A34
:10BE6000EB6862002100D45A074A9442F9D13A00A3
:10BE7000280009F09BFA22003900280009F096FA00
:10BE8000EC683F02E419DEE7FFEF0000F0B50600C2
:10BE90008BB008000D00170003930BF008FB2C1863
:10BEA000AC4204D323782F2B01D0013CF8E73900B2
:10BEB0003000FFF799FF051E03D1002528000BB0C5
:10BEC000F0BD3000FFF76CFF071EF6D0611C04AC1C
:10BED00020000BF0E4FA039B2782002B12D0C02332
:10BEE000DB016382002363610023220029000093A9
:10BEF000301D1833FFF78EFC3000218A034A09F009
:10BF000055FADBE701235B426382ECE7FFEF0000B9
:10BF1000F0B589B005930C00CB684D688021060010
:10BF200004921B8A49000393C368039A8D4205D982
:10BF30005200D25A013D0392FF3DF6E7002712025C
:10BF40009B185B190693059B9F4242DA8023059A52
:10BF50005B00D21B5B1B02929A4200DD0293029BA4
:10BF6000002B11D0331D07936368A268FB180020D3
:10BF7000934202D23000FFF741FD0090029B049AE9
:10BF80000699301DFFF746FC029A029B9446ED1875
:10BF9000FF18049B6344049380235B009D42D2D12D
:10BFA000059BBB42CFDD3000FFF7FAFE051E10D027
:10BFB00001000D4A300009F0F9F92A003000039918
:10BFC00009F0F4F9F2682B02D318039506930025C3
:10BFD000B9E76368A268FB189A4200DA1A003800D1
:10BFE000A260636009B0F0BDFFEF0000F0B5036828
:10BFF00006008BB0DB0739D5002209F044FA041E95
:10C0000036D00100300009F053FAE368A1685A699C
:10C0100000208A4218D004AD2A0083CB83C283CB90
:10C0200083C2A368E1686B614A8A124B371D9A424A
:10C030000CD18023DB016B8200232A00009338009F
:10C040001833FFF7E7FB00200BB0F0BD0E220023F2
:10C050006A4413801231009338000233FFF7DAFB91
:10C0600021693000FFF7C0FE0100E5E70248EBE779
:10C070000248E9E7FFFF000016FCFFFF17FCFFFF87
:10C08000F8B51E00036807001400DB071ED5002268
:10C0900009F0F9F9051E02D10D4C2000F8BD010090
:10C0A000380009F005FA012E06D06B68022E0AD07E
:10C0B000E418042E00D01C00002CEDDBAB68A3427A
:10C0C000EAD36C60E9E7AB68E418F5E7014CE4E714
:10C0D00017FCFFFF16FCFFFFF0B51C00036885B0DE
:10C0E00007000392DB0755D5002209F0CCF9061EA4
:10C0F00052D0039B002B4FD0002C4DD001003800B4
:10C1000009F0D6F97568B3685B1B0293A34200DDA2
:10C1100002948022F36852001B8A0193954207D94A
:10C12000019BF9685B005B5A013D0193FF3DF5E718
:10C130000024029B9C4227DA8023029A5B00121B98
:10C140005B1B00929A4200DD0093009B002B08DDF0
:10C15000019B009A1902FB680398591849190BF0C2
:10C1600042F9009A009B9446E418039BAD1863447F
:10C17000039380235B009D42DBD1019BFA685B0047
:10C180009B5A00250193D4E773681B197360200044
:10C1900005B0F0BD014CFAE7014CF8E716FCFFFFD3
:10C1A00017FCFFFFF7B5036805000F000192DB07DE
:10C1B00058D509F09EF9002816D03900280009F05A
:10C1C00006F9061E10D0020039002800FFF7ACFC6B
:10C1D000AA690021040013000091002B14D0002C48
:10C1E00004D1019B5B0733D41F4830E0D968A142DA
:10C1F00038D059880098814204D10300013300935C
:10C200001300EAE75B69E8E7002CEAD01C200BF09A
:10C21000B2F80423019A9A43009B02804380618A0A
:10C22000124A0023914200D063690821019A019FBC
:10C2300083600A400F4200D01A0000230383AB69D9
:10C24000426043616B46C4600661A8611888FEBD08
:10C250000023320039002800FFF718FE041ED5D154
:10C260000348F4E70348F2E717FCFFFFFFFF000075
:10C2700013FCFFFF16FCFFFFF8B51E000368040067
:10C280001700DB0716D5002209F0FDF8051E13D0B4
:10C29000002F11D0002E0FD00020864209DB29008C
:10C2A000200009F005F933003A0029002000FFF7CB
:10C2B0002FFEF8BD0148FCE70148FAE716FCFFFF36
:10C2C00017FCFFFF7FB501220500FFF76BFF002879
:10C2D00022DB01000122280009F0D5F80600C3681E
:10C2E000198A0E4B994208D0EA684B009C5A2800E4
:10C2F000002209F05BF82100F3E70E220024F16828
:10C300006A44148002231231281D0094FFF782FA38
:10C3100030000BF02CF8200004B070BDFFEF0000DF
:10C3200080235B055B69024A133B9B0213607047E5
:10C330001C25002008B4024B9C46443808BC6047CA
:10C340001F550200FA21F8B50389C90004005943BA
:10C35000324809F070FCFA21890005F02FFD304FBA
:10C36000A17A2081380009F066FC23002600250010
:10C3700022894C33A072A0361A808C3500232A22E1
:10C380003178286808F002FC002844D11F235B2282
:10C390003178286808F0FAFB00283CD120235C2281
:10C3A0003178286808F0F2FB002834D101232C22D0
:10C3B0003178286808F0EAFB00282CD101232D22CF
:10C3C0003178286808F0E2FB002824D101232E22CE
:10C3D0003178286808F0DAFB00281CD1A17A3800EF
:10C3E00009F024FC0E22C3B23178286808F0CEFB95
:10C3F000002810D1FA21238989005943074809F000
:10C4000015FC012303432A2231782868DBB208F0A7
:10C41000BDFB002800D00348F8BDC046B07702003D
:10C42000A87702000EFCFFFF08B4024B9C4644387C
:10C4300008BC604745C30100074B10B51A00040053
:10C4400008323C3302604364443007F0A7FF200009
:10C4500007F0D0FE200010BD1078020008B4024B97
:10C460009C46443808BC604739C4010008B4024BFC
:10C470009C46443808BC604729550200F0B50425A5
:10C480008379040089B02B4204D1FCF7EDFEA37937
:10C490001D43A57120009030FEF728FE0025A8421C
:10C4A0000FD12300A033197820000C2305AE009390
:10C4B0008C30330001220068FEF7D4FB051E03D048
:10C4C000204D280009B0F0BDB1883088CABA0A21D1
:10C4D0009446F2887388D2BA02923789728902AE82
:10C4E00089191F2652BA0A80A17ADBBA4B4312B2CD
:10C4F0005B42C0BA03924843DA173240D3185B114B
:10C50000A361C3173340181863464B43D917314012
:10C51000C9186423029A49115B42FFBA21625F4342
:10C520000399C8335A434B43E2674011221DE0612F
:10C53000A7672000D36707F0D6FE2000443007F03D
:10C5400034FFBEE70EFCFFFF08B4024B9C464438A4
:10C5500008BC60477DC40100F7B51E00040008ABAD
:10C560001B881500019309AB1A8800910AAB3100B2
:10C570001F88FDF76BFB20003A0031004430FDF7C7
:10C58000BFFD134B20001A003C33636423000832C4
:10C590002260009A8C331A60AB8890308380AB792C
:10C5A000AA6883710B4BA98903600E23EB56826046
:10C5B00022009C32118083732300019AA03303214F
:10C5C0001A80FEF7CBFD2000FFF7BCFE2000FEBD69
:10C5D0001078020064760200F8B5FA260189B600E8
:10C5E00004007143254809F026FB310005F0E6FB05
:10C5F000234FA17A2081380009F01DFB2500A0728D
:10C60000583500232A222978606C08F0BFFA0028E8
:10C6100032D110232B222978606C08F0B7FA002859
:10C620002AD101232D222978606C08F0AFFA002866
:10C6300022D101232E222978606C08F0A7FA002865
:10C640001AD1A17A380009F0F1FA0E22C3B2297882
:10C65000606C08F09BFA00280ED1218907487143CD
:10C6600009F0E4FA012303432A222978606CDBB243
:10C6700008F08CFA002800D00248F8BD7878020053
:10C68000707802000EFCFFFF10B50400034B083366
:10C69000036007F0AFFD200010BDC046D87802004F
:10C6A0007FB50425837904002B4204D1FCF7DCFD1F
:10C6B000A3791D43A57120004830FEF717FD002522
:10C6C000A8420DD1230058331978062302AE0093F7
:10C6D00001223300606CFEF7C5FA051E03D00D4D34
:10C6E000280004B070BD002104200222A37A305635
:10C6F0007156B25659435A434343DB002362D2007A
:10C7000023685242C90020009B6AA261E1619847F8
:10C71000E6E7C0460EFCFFFFF8B504000F00190065
:10C7200006AB1E8807AB15001A88FDF78FFA0F4B72
:10C730006764083323602300AA8848339A80AA7963
:10C74000A9689A710A4AA889A2640E22AA5621658C
:10C750002100543108809A730023A37123005833B9
:10C760001E802000FFF738FF2000F8BDD8780200B7
:10C770006476020010B50400034B0833036007F031
:10C780000DFE200010BDC0466C790200F0B5070018
:10C790005C37040087B0002310223978806C08F0E1
:10C7A000F5F900283BD103260F2502ABED18012334
:10C7B000397808220093A06C2B00FEF753FA194B2E
:10C7C00098422CD02B78334203D06420FCF7EAFD4A
:10C7D000EAE7FA262189144DB6007143280009F0D2
:10C7E0002AFA310005F0EAFA2081A02311223978D3
:10C7F000A06C08F0CBF9002811D1A36C2189039318
:10C80000714328003F7809F011FA01231843C3B29D
:10C8100010223900039808F0B9F9002800D0014827
:10C8200007B0F0BD0EFCFFFF0C79020070B50825C3
:10C830008379040086B02B4204D1FCF715FDA3795F
:10C840001D43A57120004C30FEF750FC051E0DD095
:10C8500023005C331978062304AE009301223300D1
:10C86000A06CFEF7FFF9051E03D00E4D280006B0A0
:10C8700070BD6423642132884942D2BA534372881E
:10C88000A363D2BA4A4362630E22B3886A445BBA96
:10C8900013801BB24B43E363236820001B6A984755
:10C8A000E4E7C0460EFCFFFFF8B504000F001900D6
:10C8B00006AB1E8807AB15001A88FDF721FC0D4B4F
:10C8C000A764083323602300AA884C339A80AA798E
:10C8D000A9689A71084AA889E2640E22AA5661657D
:10C8E0002100583108801E8220009A73FFF74EFF06
:10C8F0002000F8BD6C79020064760200F0B5FA25DC
:10C900000189234FAD0085B004006943380009F068
:10C9100092F9290005F052FA1E4EA17A20813000CA
:10C9200009F089F9636CA0720293230058332189BE
:10C9300001931B7869433800039309F077F90723C3
:10C940000343202203990298DBB208F01FF9002864
:10C950001AD1019B22221978606C102308F016F975
:10C96000002811D1019BA17A30001F78656C09F075
:10C970005DF980235B420343232239002800DBB2A8
:10C9800008F004F9002800D0034805B0F0BDC04607
:10C99000A0790200987902000EFCFFFF10B5040098
:10C9A000034B0833036007F025FC200010BDC04690
:10C9B000107A0200F0B504258379040085B02B427B
:10C9C00004D1FCF751FCA3791D43A5712000483028
:10C9D000FEF78CFB051E0DD0230058331978062373
:10C9E00002AE0093A8223300606CFEF73BF9051EEF
:10C9F00003D0144D280005B0F0BD1F200023F25EC7
:10CA0000D31703409B180222B15E5B11CA17024084
:10CA100052180421775E3380F9170140A07A521131
:10CA20004343C919728049114243B18041435B427B
:10CA3000E3612368524220009B6AA2612162984709
:10CA4000D8E7C0460EFCFFFFF8B504000F00190040
:10CA500006AB1E8807AB15001A88FDF7F7F80F4BD9
:10CA60006764083323602300AA8848339A80AA7930
:10CA7000A9689A710A4AA889A2640E22AA56216559
:10CA80002100543108809A730023A3712300583386
:10CA90001E802000FFF732FF2000F8BD107A020050
:10CAA00064760200F7B5FA2504000189134EAD0043
:10CAB0006943300009F0BFF8290005F07FF927002D
:10CAC000A36C208100935C373B7881B269433000CE
:10CAD000019309F0ABF86022C3B20199009808F005
:10CAE00055F8002807D1012362223978A06C08F09C
:10CAF0004DF8002800D00248FEBDC046447A02002E
:10CB00000EFCFFFF10B50400034B0833036007F071
:10CB100045FC200010BDC0466C7A02007FB5082598
:10CB2000837904002B4204D1FCF79EFBA3791D43BB
:10CB3000A57120004C30FEF7D9FA051E0DD0230058
:10CB40005C331978062302AE0093E8223300A06C10
:10CB5000FEF788F8051E03D00B4D280004B070BD09
:10CB60000223F25E96235B425A4362630021725EA7
:10CB700020005343A3630423F25E96235343E363ED
:10CB800023681B6A9847E8E70EFCFFFFF8B504002E
:10CB90000F00190006AB1E8807AB15001A88FDF7B9
:10CBA000AFFA0D4BA764083323602300AA884C33E7
:10CBB0009A80AA79A9689A71084AA889E2640E2223
:10CBC000AA5661652100583108801E8220009A73A0
:10CBD000FFF768FF2000F8BD6C7A0200647602005F
:10CBE00010B50400054B083303601C3007F017F93B
:10CBF0002000183007F013F9200010BD987A0200C9
:10CC0000FF23F0B52C4E8DB033700023040069462D
:10CC10000088009304F06AFA002802D16B469B78E2
:10CC20003370264D2B68DB68002B07D1002320884A
:10CC30001A00190008F0E8FC0DB0F0BD3378032BA2
:10CC4000F4D81F4901A8FCF7F9FD2B6801A9DD689C
:10CC500004A807F039F9280004A908F022FB0027EE
:10CC6000050004A807F0DBF8BD421ED029002022F1
:10CC7000103104A80AF0B7FB28000AF078FB3178DD
:10CC800004ABC9005918082202A80AF0ACFB012322
:10CC90000822208802A908F0B7FC0137002804D137
:10CCA0000C212088074A08F0ADFC01A807F0B7F86E
:10CCB000002FBBD0C0E7C0468120002030250020D7
:10CCC000C1850200FFFF0000F0B58379040091B038
:10CCD0005B071BD5FCF76EFD00232269801A994182
:10CCE000994203D1F533FF3398420FD3A06800284F
:10CCF00008D0354B1D8809F016F803681522290065
:10CD00001B6A98470422A3799343A371A3799B07D5
:10CD100058D52E4E3368DB68002B4FD02C4F3B7814
:10CD2000032B4BD8284B2B491B8804A80193FCF7F5
:10CD300085FD336804A9DD6808A807F0C5F808A9CF
:10CD4000280008F0AEFA050008A807F068F80823E4
:10CD500002AAD3800198073B063206A908F056FCC8
:10CD6000002D08D029002022103108A80AF03BFB32
:10CD700028000AF0FCFA3D7802ABDA88ED0008AB37
:10CD80005D19280006A90AF020FB002813D008220C
:10CD9000280006A90AF027FB336804A9DD6805A866
:10CDA00007F092F82023280008AA05A908F07FFAC6
:10CDB00005A807F034F804A807F031F80222A37997
:10CDC0009343A37111B0F0BDB0270020302500209F
:10CDD00081200020C185020070B5036804000D1E8B
:10CDE00009D15B699847FA2080006843074904F03D
:10CDF000E5FFE08070BD9B689847A842F3D923689F
:10CE000020009B6898470500EDE7C04671020000CE
:10CE1000F0B50400150085B001930AAB1F880BAB79
:10CE20001B78461C02930EAB1B78102203930B78E1
:10CE300003704B8A0131438230000AF0D4FA6561F5
:10CE400000250122019B27836383039BE5832377CE
:10CE5000029B2000F377A31CDA770C9B0C266362FD
:10CE600023000D9A283329001A705D7032009D70DE
:10CE70002C300AF0D4FA2000064B3200A3632900BC
:10CE8000E56340300AF0CBFA2000034B2565E364EC
:10CE900005B0F0BD2356020015560200F0B507009C
:10CEA0001500A1B002C706006B4918A81C0008F0C5
:10CEB00079FC2B1E03D028000AF0F9FA83B2012274
:10CEC00004920022039202920232019200932A00FD
:10CED00018A93800FFF79CFF33006049583318A8A1
:10CEE000079308F05FFC231E03D020000AF0DFFA4E
:10CEF00083B2012204920022039202920232019232
:10CF00000093220018A90798FFF782FF33005449C5
:10CF1000AC3318A8089308F045FC269B002B03D0DF
:10CF200018000AF0C4FA83B201220492002203928C
:10CF30000292023201920093269A18A90898FFF7EC
:10CF400067FF731CFF33474918A8099308F02AFCB0
:10CF5000279B002B03D018000AF0A9FA83B2012204
:10CF600004920022701C03920292023201920093FA
:10CF7000279A18A9FF30FFF74BFF33005533FF33D3
:10CF8000394918A8099308F00DFC289B002B03D001
:10CF900018000AF08CFA83B2012204920022039254
:10CFA0000292023201920093289A18A90998FFF779
:10CFB0002FFF3300A933FF332C4918A80A9308F038
:10CFC000F1FB299B002B03D018000AF070FA83B202
:10CFD00001220492002218AC0392029202320192C2
:10CFE00000932100299A0A98FFF712FF204B1B7823
:10CFF0000B93002B2DD1079B1E491393089B0DA863
:10D000001493731CFF331593099B129716930A9B75
:10D0100012AD179308F0C6FB1D21492006AB1B7FFC
:10D020001022237006ABDB8D638206ABC918C018D3
:10D030000AF0D9F9062323750B9B3068A383A561F9
:10D0400008F075FE036821001B6898470122084B11
:10D050001A70300021B0F0BD292A0000242A0000F7
:10D06000252A0000272A0000262A0000282A00007E
:10D070000E2800200A18000070B5002504000B4B94
:10D080008580083385710360C1601830FCF710FC9F
:10D0900020001C30FCF70CFC0123621CD377044AEF
:10D0A0002000A56065611460A37170BD987A0200CC
:10D0B00030250020FA2130B585B00400012302227A
:10D0C0006846890006F044FF074D2868002809D00B
:10D0D00008F0A1FB2188054B2A6819800223917969
:10D0E0000B43937105B030BD30250020B0270020E0
:10D0F00010B50C0007290FD8806808F014FE074B04
:10D10000195703685B6C984743425841044B4042AF
:10D110001840044BC01810BD0348FCE73D870200CF
:10D12000EA03000016FCFFFF17FCFFFFF0B5A14C5F
:10D130000E00A5440400069396AB1B789E4908A8F0
:10D1400007930592FCF77AFB200031001C3006F0B3
:10D15000C3FE9A4909A8FCF771FB99490AA8FCF794
:10D160006DFB0CAD09AA08A90BA811AF06F0C3FE10
:10D17000320028000BA906F0BEFE0AAA29003800DA
:10D1800006F0B9FE390008A806F0A6FE380006F041
:10D1900046FE280006F043FE0BA806F040FEC02025
:10D1A000C00001F0D5F908200AF0E5F806000021DA
:10D1B00001F0B4F808220021A6600DA80AF02FF9AA
:10D1C00000230C933B0007CD07C37E4B3900FB6067
:10D1D000002330003B6108F08FFDA06808F0A3FD3C
:10D1E00008220021049012A80AF019F914200AF06C
:10D1F000C2F8754B3A001193030062CA62C3734BC5
:10D20000049DC3600023A43503612B68002B00D06C
:10D21000C9E02860A06808F08AFD08220021049077
:10D2200012A80AF0FCF814200AF0A5F8684B3A009E
:10D230001193030062CA62C3664BC360002303619B
:10D24000049B1B6B002B00D0AFE0049B11AE186356
:10D25000A06808F068FD08220021049012A80AF0D6
:10D26000DEF814200AF087F85B4B1193030026CEFA
:10D2700026C35A4B049DC3600023983503612B6875
:10D28000002B00D093E02860012004AB1B7F04AA90
:10D2900003430BA9137708F0BBF9A06808F04BFD16
:10D2A00003684F495B6A9847A06808F044FD03682B
:10D2B0004C499B699847A06808F03DFD0021036830
:10D2C00000911D680A000B00A847079B002B0AD09D
:10D2D000200008F0A9FA032805DDA06808F02BFD5E
:10D2E0000368DB68984706212000FFF701FF18203C
:10D2F0000AF041F8A16800F045FA3B4B3B4A1B6835
:10D30000A16803933A4B38001B6800250293394B00
:10D310000CAE1B680193059B1B6804330093364BCE
:10D3200012681B68FFF7BAFD30200AF024F8069A4D
:10D33000A16800F0DDFAA06808F0F5FC0368310090
:10D340009B6A98472D4BA0680C93B58008F0EBFCC6
:10D3500003683100DB6A98470621A06808F02EFABE
:10D36000089A09219378A068043208F03AFAA06874
:10D3700008F0D9FC0571A06808F0D5FC3221FFF750
:10D380002BFDA06808F0CFFC08F002FA0AA806F00E
:10D3900046FD09A806F043FD08A806F040FD9123CC
:10D3A0009B009D44F0BD036133E703614DE70361DA
:10D3B00069E7C046BCFDFFFFCD850200EA8502009B
:10D3C000DB85020031560200B5D001003F56020055
:10D3D00001CC01004D5602007B5602005B56020054
:10D3E00001D4010035D401002C250020282500207F
:10D3F00008200020242500200C2000200800100018
:10D4000013B506226846FCF729FA094B1C68002C64
:10D410000AD0694601A806F057FD200001A908F0CE
:10D4200024FA01A806F0FBFC684606F0F8FC13BDE0
:10D4300030250020002373B501AE0C00310005003B
:10D44000019303F053FE002802D1B278064B1A7004
:10D45000064B1868002806D061426141044BC9B2EE
:10D460001D8008F00AFA73BD8120002030250020BD
:10D47000B027002030B5284CA9B06A220D000DA8B5
:10D48000210009F0B0FF0DA903A8FCF761FA03A978
:10D4900006A806F08DFD01230193013BFF3B00939D
:10D4A0000533FF33642206A92800FDF781FB06A897
:10D4B00006F071FD210019226A3106A809F093FFD8
:10D4C00005220024110006AB04A806F098FD04A96B
:10D4D00005A806F06DFD23002200280001940094A9
:10D4E00005A9FDF7CDFA05A806F055FD2100280095
:10D4F000FDF78EFB05340520FBF754FFFF2CF5D11B
:10D50000FA208000FBF74EFF04A806F044FD03A8B4
:10D5100006F041FD29B030BDBA860200F0B5904B4F
:10D520008DB005921A68082304000F00D16C07A87B
:10D530000B43D3648B49FCF781F98B4908A8FCF7AE
:10D540007DF9220000251C3207A90BA806F0D3FCA8
:10D5500008AA0BA909A806F0CEFC0BA806F05FFCF0
:10D56000631CDD77A06808F0DEFB03685B69984701
:10D57000A06808F0D8FB030006000A331F22290028
:10D580001800039309F04BFF039B3000DD7708F090
:10D59000F6F80621A06808F011F9099A0921937894
:10D5A000A068043208F01DF9A06808F0BCFB057102
:10D5B000A06808F0B8FBC821FFF70EFCA06808F0CF
:10D5C000B2FB0581A06808F0AEFB08F0E1F8380076
:10D5D000FDF7EAF92000FBF747FE39002000FFF7CE
:10D5E00049FF3900200008F05BF9FF2304950393FD
:10D5F0006269012316001E401A4232D05B490AA814
:10D60000FCF720FA0AA90BA806F0D2FC00220BA90D
:10D610001300019200923800FDF732FA0BA806F0D1
:10D62000BAFC049B002B47D1039B043B0393039B51
:10D63000282B44DC380007F09CFA039B002B00DC0D
:10D640000496059806F096FE002806D0012362692C
:10D650009A4313000422134363610AA806F09BFC5B
:10D66000002504226369134234D0FF213800C82604
:10D67000FDF7CEFA0025B600A36902229B5EAB42FD
:10D6800023DD200029B2183006F04BFC00230100F6
:10D6900038001A007430FCF725FA3000FBF782FEE0
:10D6A000380007F066FAC820FBF77CFE02226369A7
:10D6B00013420AD10135DFE7039B0433B6E7039B2E
:10D6C000FE2BBEDD00230493BBE7FA208000FBF7AE
:10D6D00069FE00250222636913421ED01E00063235
:10D6E0001640134224D022490AA8FCF7ABF90AA934
:10D6F0000BA806F05DFC00220BA91300019200921A
:10D700003800FDF7BDF90BA806F045FC1948FBF7FA
:10D7100049FE0AA806F03FFC174D6420FBF742FEC5
:10D72000164B01359D4200DC62E706F034FA5FE7F4
:10D7300013490AA8FCF786F90AA90BA806F038FCD9
:10D74000330032000BA9380001960096FDF798F9D6
:10D750000BA806F020FC0AA806F01DFCDDE7C04679
:10D76000AC240020DD850200DB850200ED8502008F
:10D7700032860200983A00008C0A00008B0A0000F2
:10D780006F8602000022544BF0B508330360060098
:10D7900081600F001000A9B00BABD11801324870A6
:10D7A000102AFAD119000F3A4C4C1A700E32105D43
:10D7B00001310870013AFAD2997B5A7B09020A4377
:10D7C00031000C310391452025211B7813AD2B70BE
:10D7D00002AB6A82C9181022C01809F004FE039B2C
:10D7E00000246B6101232B7719930A33FF332B84B9
:10D7F00002AA9C3B9B18210008221C701FA8EC83E6
:10D800006C622C8509F00BFE354B0822210024A800
:10D81000AB63EC63EC6209F002FE2200314B2C6535
:10D820002C64EB640595347306AD631901345A70AA
:10D83000102CFAD101232A002B482B700E33195CCF
:10D8400001321170013BFAD211212520AA7B6B7B9A
:10D8500012020BAC13432A78638202ABC918227000
:10D86000C018102209F0BFFD0123237505ABA36189
:10D8700000233800A38308F05AFA036821001B68CC
:10D88000984713ABDB8BB068B38208F050FA0022E4
:10D8900003680092B18A039ADC680123A047B0684C
:10D8A00008F045FA0700142009F065FD0022012365
:10D8B000040002610692290040C00832079309F073
:10D8C00092FD0A4BE360BB69002B03D13000BC61C1
:10D8D00029B0F0BD2361F9E7B07A02004587020064
:10D8E0002356020015560200558702000159020016
:10D8F000F0B500240500744BDBB008330360816091
:10D90000C260724922008480847145A808F098F8AA
:10D910002B0014330127042608931223089A049736
:10D9200001930096230045A9039402941BA8FFF7D6
:10D930006FFA2200664945A808F082F80C232A00F5
:10D940000497103201930096230045A90394029492
:10D9500030A8FFF75DFA22005E4913A808F070F8BE
:10D9600029001C31099108212300099A049701918B
:10D97000009613A90394029445A8FFF749FA2200E0
:10D98000554913A808F05CF8542009F0F4FC29006C
:10D990001222042306001831079104970192009384
:10D9A0000A00230013A903940294FFF731FA300010
:10D9B0004A4B0822AE62F56213A9303013931494D7
:10D9C00009F011FD3200464B2932B36309991770F3
:10D9D000079804222C61EC6109F005FD04220799E7
:10D9E000089809F000FD5E2204ABD218D777B22266
:10D9F00004ABD218D77704AAD31D1BAAFF330A920F
:10DA000030AADF770B92B31C45AADF7735490C9219
:10DA1000AC8522000EA80D9608F012F828213D20B2
:10DA200004AA52181378143104AA5218137004AAC5
:10DA3000538F123152181380253904ABC9181022A4
:10DA4000C01809F0D0FC5021042304AA5218137006
:10DA5000582204AB9B180AAF1997A8681C8008F0DD
:10DA600066F9036813A91B6898477A2204AB9B18D0
:10DA70001B8854322B8404AB9B181B885432AB8414
:10DA800004AB9B181B88A8686B8408F050F907004A
:10DA9000142009F070FC0600134B0461082220C01A
:10DAA0000EA90E930F9409F09EFC104BF360BB6916
:10DAB000A34206D12800BE61FBF7D6FB28005BB06D
:10DAC000F0BD3361F6E7C046BC7A020085870200EC
:10DAD000658702007587020095870200135A0200CD
